{
  "_format": "hh-sol-artifact-1",
  "contractName": "MothoraVault",
  "sourceName": "contracts/MothoraVault.sol",
  "abi": [
    {
      "inputs": [
        {
          "internalType": "address",
          "name": "_tokenAddress",
          "type": "address"
        },
        {
          "internalType": "address",
          "name": "_gameItemsAddress",
          "type": "address"
        },
        {
          "internalType": "address",
          "name": "_playerContractAddress",
          "type": "address"
        },
        {
          "internalType": "uint256",
          "name": "_epochRewardsPercentage",
          "type": "uint256"
        },
        {
          "internalType": "uint256",
          "name": "_epochDuration",
          "type": "uint256"
        }
      ],
      "stateMutability": "nonpayable",
      "type": "constructor"
    },
    {
      "anonymous": false,
      "inputs": [
        {
          "indexed": true,
          "internalType": "address",
          "name": "previousOwner",
          "type": "address"
        },
        {
          "indexed": true,
          "internalType": "address",
          "name": "newOwner",
          "type": "address"
        }
      ],
      "name": "OwnershipTransferred",
      "type": "event"
    },
    {
      "inputs": [
        {
          "internalType": "address",
          "name": "",
          "type": "address"
        }
      ],
      "name": "RewardsBalance",
      "outputs": [
        {
          "internalType": "uint256",
          "name": "",
          "type": "uint256"
        }
      ],
      "stateMutability": "view",
      "type": "function"
    },
    {
      "inputs": [
        {
          "internalType": "bool",
          "name": "autocompound",
          "type": "bool"
        }
      ],
      "name": "claimEpochRewards",
      "outputs": [],
      "stateMutability": "nonpayable",
      "type": "function"
    },
    {
      "inputs": [
        {
          "internalType": "uint256",
          "name": "_amount",
          "type": "uint256"
        }
      ],
      "name": "contributeVaultParts",
      "outputs": [],
      "stateMutability": "nonpayable",
      "type": "function"
    },
    {
      "inputs": [],
      "name": "distributeRewards",
      "outputs": [],
      "stateMutability": "nonpayable",
      "type": "function"
    },
    {
      "inputs": [
        {
          "internalType": "uint256",
          "name": "numerator",
          "type": "uint256"
        },
        {
          "internalType": "uint256",
          "name": "denominator",
          "type": "uint256"
        },
        {
          "internalType": "uint256",
          "name": "precision",
          "type": "uint256"
        }
      ],
      "name": "divider",
      "outputs": [
        {
          "internalType": "uint256",
          "name": "",
          "type": "uint256"
        }
      ],
      "stateMutability": "pure",
      "type": "function"
    },
    {
      "inputs": [],
      "name": "epochDuration",
      "outputs": [
        {
          "internalType": "uint256",
          "name": "",
          "type": "uint256"
        }
      ],
      "stateMutability": "view",
      "type": "function"
    },
    {
      "inputs": [],
      "name": "epochRewards",
      "outputs": [
        {
          "internalType": "uint256",
          "name": "",
          "type": "uint256"
        }
      ],
      "stateMutability": "view",
      "type": "function"
    },
    {
      "inputs": [],
      "name": "epochRewardsPercentage",
      "outputs": [
        {
          "internalType": "uint256",
          "name": "",
          "type": "uint256"
        }
      ],
      "stateMutability": "view",
      "type": "function"
    },
    {
      "inputs": [],
      "name": "epochStartTime",
      "outputs": [
        {
          "internalType": "uint256",
          "name": "",
          "type": "uint256"
        }
      ],
      "stateMutability": "view",
      "type": "function"
    },
    {
      "inputs": [],
      "name": "essenceInterface",
      "outputs": [
        {
          "internalType": "contract IERC20",
          "name": "",
          "type": "address"
        }
      ],
      "stateMutability": "view",
      "type": "function"
    },
    {
      "inputs": [
        {
          "internalType": "uint256",
          "name": "",
          "type": "uint256"
        }
      ],
      "name": "factionPartsBalance",
      "outputs": [
        {
          "internalType": "uint256",
          "name": "",
          "type": "uint256"
        }
      ],
      "stateMutability": "view",
      "type": "function"
    },
    {
      "inputs": [],
      "name": "factor1",
      "outputs": [
        {
          "internalType": "uint256",
          "name": "",
          "type": "uint256"
        }
      ],
      "stateMutability": "view",
      "type": "function"
    },
    {
      "inputs": [],
      "name": "factor2",
      "outputs": [
        {
          "internalType": "uint256",
          "name": "",
          "type": "uint256"
        }
      ],
      "stateMutability": "view",
      "type": "function"
    },
    {
      "inputs": [],
      "name": "factor3",
      "outputs": [
        {
          "internalType": "uint256",
          "name": "",
          "type": "uint256"
        }
      ],
      "stateMutability": "view",
      "type": "function"
    },
    {
      "inputs": [
        {
          "internalType": "uint256",
          "name": "_faction",
          "type": "uint256"
        }
      ],
      "name": "getFactionVaultPartsBalance",
      "outputs": [
        {
          "internalType": "uint256",
          "name": "factionVaultPartsBalance",
          "type": "uint256"
        }
      ],
      "stateMutability": "view",
      "type": "function"
    },
    {
      "inputs": [
        {
          "internalType": "address",
          "name": "_player",
          "type": "address"
        }
      ],
      "name": "getPlayerVaultPartsBalance",
      "outputs": [
        {
          "internalType": "uint256",
          "name": "playerVaultPartsBalance",
          "type": "uint256"
        }
      ],
      "stateMutability": "view",
      "type": "function"
    },
    {
      "inputs": [
        {
          "internalType": "address",
          "name": "_player",
          "type": "address"
        }
      ],
      "name": "getTotalBalance",
      "outputs": [
        {
          "internalType": "uint256",
          "name": "balance",
          "type": "uint256"
        },
        {
          "internalType": "uint256",
          "name": "stakedBalance",
          "type": "uint256"
        },
        {
          "internalType": "uint256",
          "name": "pendingRewards",
          "type": "uint256"
        }
      ],
      "stateMutability": "view",
      "type": "function"
    },
    {
      "inputs": [],
      "name": "lastDistributionTime",
      "outputs": [
        {
          "internalType": "uint256",
          "name": "",
          "type": "uint256"
        }
      ],
      "stateMutability": "view",
      "type": "function"
    },
    {
      "inputs": [],
      "name": "lastEpochTime",
      "outputs": [
        {
          "internalType": "uint256",
          "name": "",
          "type": "uint256"
        }
      ],
      "stateMutability": "view",
      "type": "function"
    },
    {
      "inputs": [
        {
          "internalType": "address",
          "name": "",
          "type": "address"
        }
      ],
      "name": "lastUpdate",
      "outputs": [
        {
          "internalType": "uint256",
          "name": "",
          "type": "uint256"
        }
      ],
      "stateMutability": "view",
      "type": "function"
    },
    {
      "inputs": [],
      "name": "maxedFactor1",
      "outputs": [
        {
          "internalType": "uint256",
          "name": "",
          "type": "uint256"
        }
      ],
      "stateMutability": "view",
      "type": "function"
    },
    {
      "inputs": [],
      "name": "maxedFactor2",
      "outputs": [
        {
          "internalType": "uint256",
          "name": "",
          "type": "uint256"
        }
      ],
      "stateMutability": "view",
      "type": "function"
    },
    {
      "inputs": [],
      "name": "maxedFactor3",
      "outputs": [
        {
          "internalType": "uint256",
          "name": "",
          "type": "uint256"
        }
      ],
      "stateMutability": "view",
      "type": "function"
    },
    {
      "inputs": [
        {
          "internalType": "address",
          "name": "",
          "type": "address"
        },
        {
          "internalType": "address",
          "name": "",
          "type": "address"
        },
        {
          "internalType": "uint256[]",
          "name": "",
          "type": "uint256[]"
        },
        {
          "internalType": "uint256[]",
          "name": "",
          "type": "uint256[]"
        },
        {
          "internalType": "bytes",
          "name": "",
          "type": "bytes"
        }
      ],
      "name": "onERC1155BatchReceived",
      "outputs": [
        {
          "internalType": "bytes4",
          "name": "",
          "type": "bytes4"
        }
      ],
      "stateMutability": "nonpayable",
      "type": "function"
    },
    {
      "inputs": [
        {
          "internalType": "address",
          "name": "",
          "type": "address"
        },
        {
          "internalType": "address",
          "name": "",
          "type": "address"
        },
        {
          "internalType": "uint256",
          "name": "",
          "type": "uint256"
        },
        {
          "internalType": "uint256",
          "name": "",
          "type": "uint256"
        },
        {
          "internalType": "bytes",
          "name": "",
          "type": "bytes"
        }
      ],
      "name": "onERC1155Received",
      "outputs": [
        {
          "internalType": "bytes4",
          "name": "",
          "type": "bytes4"
        }
      ],
      "stateMutability": "nonpayable",
      "type": "function"
    },
    {
      "inputs": [],
      "name": "owner",
      "outputs": [
        {
          "internalType": "address",
          "name": "",
          "type": "address"
        }
      ],
      "stateMutability": "view",
      "type": "function"
    },
    {
      "inputs": [
        {
          "internalType": "uint256",
          "name": "",
          "type": "uint256"
        }
      ],
      "name": "playerAddresses",
      "outputs": [
        {
          "internalType": "address",
          "name": "",
          "type": "address"
        }
      ],
      "stateMutability": "view",
      "type": "function"
    },
    {
      "inputs": [],
      "name": "playerId",
      "outputs": [
        {
          "internalType": "uint256",
          "name": "",
          "type": "uint256"
        }
      ],
      "stateMutability": "view",
      "type": "function"
    },
    {
      "inputs": [
        {
          "internalType": "address",
          "name": "",
          "type": "address"
        }
      ],
      "name": "playerIds",
      "outputs": [
        {
          "internalType": "uint256",
          "name": "",
          "type": "uint256"
        }
      ],
      "stateMutability": "view",
      "type": "function"
    },
    {
      "inputs": [
        {
          "internalType": "address",
          "name": "",
          "type": "address"
        }
      ],
      "name": "playerStakedPartsBalance",
      "outputs": [
        {
          "internalType": "uint256",
          "name": "",
          "type": "uint256"
        }
      ],
      "stateMutability": "view",
      "type": "function"
    },
    {
      "inputs": [],
      "name": "renounceOwnership",
      "outputs": [],
      "stateMutability": "nonpayable",
      "type": "function"
    },
    {
      "inputs": [
        {
          "internalType": "uint256",
          "name": "_amount",
          "type": "uint256"
        }
      ],
      "name": "stakeTokens",
      "outputs": [],
      "stateMutability": "nonpayable",
      "type": "function"
    },
    {
      "inputs": [
        {
          "internalType": "address",
          "name": "",
          "type": "address"
        }
      ],
      "name": "stakedDuration",
      "outputs": [
        {
          "internalType": "uint256",
          "name": "",
          "type": "uint256"
        }
      ],
      "stateMutability": "view",
      "type": "function"
    },
    {
      "inputs": [
        {
          "internalType": "address",
          "name": "",
          "type": "address"
        }
      ],
      "name": "stakedESSBalance",
      "outputs": [
        {
          "internalType": "uint256",
          "name": "",
          "type": "uint256"
        }
      ],
      "stateMutability": "view",
      "type": "function"
    },
    {
      "inputs": [
        {
          "internalType": "bytes4",
          "name": "interfaceId",
          "type": "bytes4"
        }
      ],
      "name": "supportsInterface",
      "outputs": [
        {
          "internalType": "bool",
          "name": "",
          "type": "bool"
        }
      ],
      "stateMutability": "view",
      "type": "function"
    },
    {
      "inputs": [
        {
          "internalType": "address",
          "name": "",
          "type": "address"
        }
      ],
      "name": "timeTier",
      "outputs": [
        {
          "internalType": "uint256",
          "name": "",
          "type": "uint256"
        }
      ],
      "stateMutability": "view",
      "type": "function"
    },
    {
      "inputs": [],
      "name": "totalStakedBalance",
      "outputs": [
        {
          "internalType": "uint256",
          "name": "",
          "type": "uint256"
        }
      ],
      "stateMutability": "view",
      "type": "function"
    },
    {
      "inputs": [],
      "name": "totalVaultPartsContributed",
      "outputs": [
        {
          "internalType": "uint256",
          "name": "",
          "type": "uint256"
        }
      ],
      "stateMutability": "view",
      "type": "function"
    },
    {
      "inputs": [
        {
          "internalType": "address",
          "name": "newOwner",
          "type": "address"
        }
      ],
      "name": "transferOwnership",
      "outputs": [],
      "stateMutability": "nonpayable",
      "type": "function"
    },
    {
      "inputs": [
        {
          "internalType": "uint256",
          "name": "_amount",
          "type": "uint256"
        }
      ],
      "name": "unstakeTokens",
      "outputs": [],
      "stateMutability": "nonpayable",
      "type": "function"
    }
  ],
  "bytecode": "0x60806040523480156200001157600080fd5b506040516200237438038062002374833981016040819052620000349162000101565b6200003f3362000094565b60018055600a80546001600160a01b03199081166001600160a01b0397881617909155600c8054821695871695909517909455600d80549094169290941691909117909155601255601355426014556200015e565b600080546001600160a01b038381166001600160a01b0319831681178455604051919092169283917f8be0079c531659141344cd1fd0a4f28419497f9722a3daafe3b4186f6b6457e09190a35050565b80516001600160a01b0381168114620000fc57600080fd5b919050565b600080600080600060a086880312156200011a57600080fd5b6200012586620000e4565b94506200013560208701620000e4565b93506200014560408701620000e4565b6060870151608090970151959894975095949392505050565b612206806200016e6000396000f3fe608060405234801561001057600080fd5b50600436106102485760003560e01c8063773f7a3a1161013b578063cb03fb1e116100b8578063eaaa1b1d1161007c578063eaaa1b1d14610547578063f23a6e6114610567578063f2fde38b14610586578063f60ca64114610599578063ffc1a8de146105a257600080fd5b8063cb03fb1e146104bd578063d36ec061146104dd578063d3d38193146104fd578063d7f81f361461052b578063e12a77001461053e57600080fd5b80638ace109f116100ff5780638ace109f146104225780638da5cb5b1461042b578063986812e81461043c5780639dc3617914610465578063bc197c811461048557600080fd5b8063773f7a3a146103de5780637d9f2155146103e757806384e93663146103f057806388e1e939146103f957806389c614b81461041957600080fd5b80634ff0876a116101c9578063713c0e1a1161018d578063713c0e1a1461039e578063715018a6146103a757806372cf1773146103af5780637547c7a3146103c257806375b17350146103d557600080fd5b80634ff0876a1461033a5780635ca5e06814610343578063608e4dd014610363578063696786d3146103765780636f4a2cd01461039657600080fd5b80632ee981e6116102105780632ee981e6146102ea57806334a0d80e146102f35780633c41ed43146102fc57806344cfedbd146103115780634c880e221461033157600080fd5b806301ffc9a71461024d5780630620eedc146102755780630f3c1fe51461028c57806313476a46146102ac57806315c6aee2146102d7575b600080fd5b61026061025b366004611c02565b6105ab565b60405190151581526020015b60405180910390f35b61027e600e5481565b60405190815260200161026c565b61027e61029a366004611c48565b60086020526000908152604090205481565b600a546102bf906001600160a01b031681565b6040516001600160a01b03909116815260200161026c565b6102bf6102e5366004611c63565b6105e2565b61027e601b5481565b61027e60165481565b61030f61030a366004611c63565b61060c565b005b61027e61031f366004611c48565b60056020526000908152604090205481565b61027e601a5481565b61027e60135481565b61027e610351366004611c63565b60096020526000908152604090205481565b61030f610371366004611c63565b610927565b61027e610384366004611c48565b60076020526000908152604090205481565b61030f610aa3565b61027e601d5481565b61030f611359565b61030f6103bd366004611c8a565b61138d565b61030f6103d0366004611c63565b6113ec565b61027e60115481565b61027e600f5481565b61027e60175481565b61027e60125481565b61027e610407366004611c48565b60026020526000908152604090205481565b61027e60155481565b61027e60185481565b6000546001600160a01b03166102bf565b61027e61044a366004611c48565b6001600160a01b031660009081526008602052604090205490565b61027e610473366004611c63565b60009081526009602052604090205490565b6104a4610493366004611dd3565b63bc197c8160e01b95945050505050565b6040516001600160e01b0319909116815260200161026c565b61027e6104cb366004611c48565b60066020526000908152604090205481565b61027e6104eb366004611c48565b60046020526000908152604090205481565b61051061050b366004611c48565b611488565b6040805193845260208401929092529082015260600161026c565b61027e610539366004611e7d565b61152f565b61027e60195481565b61027e610555366004611c48565b60036020526000908152604090205481565b6104a4610575366004611ea9565b63f23a6e6160e01b95945050505050565b61030f610594366004611c48565b61157d565b61027e60145481565b61027e60105481565b60006001600160e01b03198216630271189760e51b14806105dc57506301ffc9a760e01b6001600160e01b03198316145b92915050565b601c81815481106105f257600080fd5b6000918252602090912001546001600160a01b0316905081565b6002600154036106375760405162461bcd60e51b815260040161062e90611f0e565b60405180910390fd5b6002600155806106895760405162461bcd60e51b815260206004820152601a60248201527f416d6f756e74206d757374206265206d6f7265207468616e2030000000000000604482015260640161062e565b600c54604080516393e6198760e01b8152905183926001600160a01b03169162fdd58e91339184916393e61987916004808201926020929091908290030181865afa1580156106dc573d6000803e3d6000fd5b505050506040513d601f19601f820116820180604052508101906107009190611f45565b6040516001600160e01b031960e085901b1681526001600160a01b0390921660048301526024820152604401602060405180830381865afa158015610749573d6000803e3d6000fd5b505050506040513d601f19601f8201168201806040525081019061076d9190611f45565b10156107cf5760405162461bcd60e51b815260206004820152602b60248201527f54686520506c6179657220646f6573206e6f74206861766520656e6f7567682060448201526a5661756c7420506172747360a81b606482015260840161062e565b600c54604051637921219560e11b81523360048201523060248201526000604482018190526064820184905260a0608483015260a48201526001600160a01b039091169063f242432a9060c401600060405180830381600087803b15801561083657600080fd5b505af115801561084a573d6000803e3d6000fd5b5050336000908152600860205260408120805485945090925061086e908490611f74565b9091555050600d5460405163de325b8f60e01b815233600482015282916009916000916001600160a01b03169063de325b8f90602401602060405180830381865afa1580156108c1573d6000803e3d6000fd5b505050506040513d601f19601f820116820180604052508101906108e59190611f45565b815260200190815260200160002060008282546109029190611f74565b92505081905550806010600082825461091b9190611f74565b90915550506001805550565b6002600154036109495760405162461bcd60e51b815260040161062e90611f0e565b60026001558061099b5760405162461bcd60e51b815260206004820152601b60248201527f416d6f756e74206d757374206265206d6f7265207468616e20302e0000000000604482015260640161062e565b336000908152600260205260409020546109f75760405162461bcd60e51b815260206004820152601b60248201527f5374616b696e672062616c616e63652063616e6e6f7420626520300000000000604482015260640161062e565b33600090815260026020526040902054811115610a6b5760405162461bcd60e51b815260206004820152602c60248201527f43616e6e6f7420756e7374616b65206d6f7265207468616e20796f757220737460448201526b616b65642062616c616e636560a01b606482015260840161062e565b3360009081526002602052604081208054839290610a8a908490611f8c565b9250508190555080600e600082825461091b9190611f8c565b6000546001600160a01b03163314610acd5760405162461bcd60e51b815260040161062e90611fa3565b6000600e5411610b1f5760405162461bcd60e51b815260206004820152601a60248201527f546865726520617265206e6f20746f6b656e73207374616b6564000000000000604482015260640161062e565b601354601454610b2f9042611f8c565b610b399190611fd8565b601354610b469190611ffa565b601454610b539190611f74565b601581905560115410610bbd5760405162461bcd60e51b815260206004820152602c60248201527f54686520706c617965722068617320616c726561647920636c61696d6564206960448201526b0dc40e8d0d2e640cae0dec6d60a31b606482015260840161062e565b610be8601254600e54610bd09190611ffa565b610bdc90610258611ffa565b63bbf81e00600061152f565b600f55600060165560015b601d548111610caf57610c36601c610c0c600184611f8c565b81548110610c1c57610c1c612019565b6000918252602090912001546001600160a01b0316611618565b60026000601c610c47600186611f8c565b81548110610c5757610c57612019565b60009182526020808320909101546001600160a01b03168352820192909252604001902054610c869190611ffa565b60166000828254610c979190611f74565b90915550819050610ca78161202f565b915050610bf3565b506010546017556003600081905260096020527fc575c31fea594a6eb97c8e9d3f9caee4c16218c6ef37e923234c0fe9014a61e754600d54604051633093550960e01b815291926001600160a01b0390911691633093550991610d189160040190815260200190565b602060405180830381865afa158015610d35573d6000803e3d6000fd5b505050506040513d601f19601f82011682018060405250810190610d599190611f45565b610d639190611ffa565b6002600081905260096020527f6cde3cea4b3a3fb2488b2808bae7556f4a405e50f65e1794383bc026131b13c354600d54604051633093550960e01b815291926001600160a01b0390911691633093550991610dc59160040190815260200190565b602060405180830381865afa158015610de2573d6000803e3d6000fd5b505050506040513d601f19601f82011682018060405250810190610e069190611f45565b610e109190611ffa565b6001600081905260096020527f92e85d02570a8092d09a6e3a57665bc3815a2699a4074001bf1ccabf660f5a3654600d54604051633093550960e01b815291926001600160a01b0390911691633093550991610e729160040190815260200190565b602060405180830381865afa158015610e8f573d6000803e3d6000fd5b505050506040513d601f19601f82011682018060405250810190610eb39190611f45565b610ebd9190611ffa565b610ec79190611f74565b610ed19190611f74565b6018556010541561115f5760015b601d54811161115857610ef8601c610c0c600184611f8c565b60026000601c610f09600186611f8c565b81548110610f1957610f19612019565b60009182526020808320909101546001600160a01b03168352820192909252604001902054610f489190611ffa565b60195560086000601c610f5c600185611f8c565b81548110610f6c57610f6c612019565b60009182526020808320909101546001600160a01b039081168452908301939093526040909101812054601a55600d546009921663de325b8f601c610fb2600187611f8c565b81548110610fc257610fc2612019565b60009182526020909120015460405160e083901b6001600160e01b03191681526001600160a01b039091166004820152602401602060405180830381865afa158015611012573d6000803e3d6000fd5b505050506040513d601f19601f820116820180604052508101906110369190611f45565b8152602081019190915260400160002054601b819055600f5461107d9161105e906005611ffa565b6110689190611ffa565b601854611076906064611ffa565b600061152f565b6110aa600f54601a5460196110929190611ffa565b61109c9190611ffa565b601754611076906064611ffa565b6110d7600f5460195460466110bf9190611ffa565b6110c99190611ffa565b601654611076906064611ffa565b6110e19190611f74565b6110eb9190611f74565b60036000601c6110fc600186611f8c565b8154811061110c5761110c612019565b60009182526020808320909101546001600160a01b0316835282019290925260400181208054909190611140908490611f74565b909155508190506111508161202f565b915050610edf565b5042601155565b60015b601d5481116111585761117b601c610c0c600184611f8c565b60026000601c61118c600186611f8c565b8154811061119c5761119c612019565b60009182526020808320909101546001600160a01b031683528201929092526040019020546111cb9190611ffa565b60195560086000601c6111df600185611f8c565b815481106111ef576111ef612019565b60009182526020808320909101546001600160a01b039081168452908301939093526040909101812054601a55600d546009921663de325b8f601c611235600187611f8c565b8154811061124557611245612019565b60009182526020909120015460405160e083901b6001600160e01b03191681526001600160a01b039091166004820152602401602060405180830381865afa158015611295573d6000803e3d6000fd5b505050506040513d601f19601f820116820180604052508101906112b99190611f45565b8152602081019190915260400160002054601b55600f546019546112ea916112e091611ffa565b601654600061152f565b60036000601c6112fb600186611f8c565b8154811061130b5761130b612019565b60009182526020808320909101546001600160a01b031683528201929092526040018120805490919061133f908490611f74565b9091555081905061134f8161202f565b915050611162565b565b6000546001600160a01b031633146113835760405162461bcd60e51b815260040161062e90611fa3565b61135760006117e4565b80156113b157336000908152600360205260409020546113ac90611834565b6113d9565b33600081815260036020526040902054600a546113d9926001600160a01b0390911691611976565b5033600090815260036020526040812055565b60026001540361140e5760405162461bcd60e51b815260040161062e90611f0e565b6002600155806114605760405162461bcd60e51b815260206004820152601b60248201527f416d6f756e74206d757374206265206d6f7265207468616e20302e0000000000604482015260640161062e565b600a54611478906001600160a01b03163330846119de565b61148181611834565b5060018055565b600a546040516370a0823160e01b81526001600160a01b03838116600483015260009283928392909116906370a0823190602401602060405180830381865afa1580156114d9573d6000803e3d6000fd5b505050506040513d601f19601f820116820180604052508101906114fd9190611f45565b6001600160a01b0394909416600090815260026020908152604080832054600390925290912054949590949350915050565b6000600a8361153f846001611f74565b61154a90600a61212c565b6115549087611ffa565b61155e9190611fd8565b611569906005611f74565b6115739190611fd8565b90505b9392505050565b6000546001600160a01b031633146115a75760405162461bcd60e51b815260040161062e90611fa3565b6001600160a01b03811661160c5760405162461bcd60e51b815260206004820152602660248201527f4f776e61626c653a206e6577206f776e657220697320746865207a65726f206160448201526564647265737360d01b606482015260840161062e565b611615816117e4565b50565b6001600160a01b03811660009081526006602052604081205461163b9042611f8c565b6001600160a01b03831660009081526005602052604081208054909190611663908490611f74565b90915550506001600160a01b03821660009081526006602090815260408083204290556005909152902054610258106116b7576001600160a01b0382166000908152600760205260409020600a90556117c8565b6001600160a01b0382166000908152600560205260409020546102581080156116fa57506001600160a01b0382166000908152600560205260409020546104b010155b15611720576001600160a01b0382166000908152600760205260409020600d90556117c8565b6001600160a01b0382166000908152600560205260409020546104b010801561176357506001600160a01b038216600090815260056020526040902054610bb810155b15611789576001600160a01b0382166000908152600760205260409020601090556117c8565b6001600160a01b038216600090815260056020526040902054610bb810156117c8576001600160a01b0382166000908152600760205260409020601490555b506001600160a01b031660009081526007602052604090205490565b600080546001600160a01b038381166001600160a01b0319831681178455604051919092169283917f8be0079c531659141344cd1fd0a4f28419497f9722a3daafe3b4186f6b6457e09190a35050565b33600090815260026020526040812054908190036118e6573360009081526004602052604081205490036118cf57601d80549060006118728361202f565b9091555050601d5433600081815260046020526040812092909255601c805460018101825592527f0e4562a10381dec21b205ed72637e6b1b523bdd0e4d4d50af5cd23dd4500a21190910180546001600160a01b03191690911790555b336000908152600660205260409020429055611935565b336000908152600260205260409020546119009082611fd8565b3360009081526006602052604090205461191a9042611f8c565b6119249190611ffa565b336000908152600560205260409020555b3360009081526002602052604081208054849290611954908490611f74565b9250508190555081600e600082825461196d9190611f74565b90915550505050565b6040516001600160a01b0383166024820152604481018290526119d990849063a9059cbb60e01b906064015b60408051601f198184030181529190526020810180516001600160e01b03166001600160e01b031990931692909217909152611a1c565b505050565b6040516001600160a01b0380851660248301528316604482015260648101829052611a169085906323b872dd60e01b906084016119a2565b50505050565b6000611a71826040518060400160405280602081526020017f5361666545524332303a206c6f772d6c6576656c2063616c6c206661696c6564815250856001600160a01b0316611aee9092919063ffffffff16565b8051909150156119d95780806020019051810190611a8f9190612138565b6119d95760405162461bcd60e51b815260206004820152602a60248201527f5361666545524332303a204552433230206f7065726174696f6e20646964206e6044820152691bdd081cdd58d8d9595960b21b606482015260840161062e565b60606115738484600085856001600160a01b0385163b611b505760405162461bcd60e51b815260206004820152601d60248201527f416464726573733a2063616c6c20746f206e6f6e2d636f6e7472616374000000604482015260640161062e565b600080866001600160a01b03168587604051611b6c9190612181565b60006040518083038185875af1925050503d8060008114611ba9576040519150601f19603f3d011682016040523d82523d6000602084013e611bae565b606091505b5091509150611bbe828286611bc9565b979650505050505050565b60608315611bd8575081611576565b825115611be85782518084602001fd5b8160405162461bcd60e51b815260040161062e919061219d565b600060208284031215611c1457600080fd5b81356001600160e01b03198116811461157657600080fd5b80356001600160a01b0381168114611c4357600080fd5b919050565b600060208284031215611c5a57600080fd5b61157682611c2c565b600060208284031215611c7557600080fd5b5035919050565b801515811461161557600080fd5b600060208284031215611c9c57600080fd5b813561157681611c7c565b634e487b7160e01b600052604160045260246000fd5b604051601f8201601f1916810167ffffffffffffffff81118282101715611ce657611ce6611ca7565b604052919050565b600082601f830112611cff57600080fd5b8135602067ffffffffffffffff821115611d1b57611d1b611ca7565b8160051b611d2a828201611cbd565b9283528481018201928281019087851115611d4457600080fd5b83870192505b84831015611bbe57823582529183019190830190611d4a565b600082601f830112611d7457600080fd5b813567ffffffffffffffff811115611d8e57611d8e611ca7565b611da1601f8201601f1916602001611cbd565b818152846020838601011115611db657600080fd5b816020850160208301376000918101602001919091529392505050565b600080600080600060a08688031215611deb57600080fd5b611df486611c2c565b9450611e0260208701611c2c565b9350604086013567ffffffffffffffff80821115611e1f57600080fd5b611e2b89838a01611cee565b94506060880135915080821115611e4157600080fd5b611e4d89838a01611cee565b93506080880135915080821115611e6357600080fd5b50611e7088828901611d63565b9150509295509295909350565b600080600060608486031215611e9257600080fd5b505081359360208301359350604090920135919050565b600080600080600060a08688031215611ec157600080fd5b611eca86611c2c565b9450611ed860208701611c2c565b93506040860135925060608601359150608086013567ffffffffffffffff811115611f0257600080fd5b611e7088828901611d63565b6020808252601f908201527f5265656e7472616e637947756172643a207265656e7472616e742063616c6c00604082015260600190565b600060208284031215611f5757600080fd5b5051919050565b634e487b7160e01b600052601160045260246000fd5b60008219821115611f8757611f87611f5e565b500190565b600082821015611f9e57611f9e611f5e565b500390565b6020808252818101527f4f776e61626c653a2063616c6c6572206973206e6f7420746865206f776e6572604082015260600190565b600082611ff557634e487b7160e01b600052601260045260246000fd5b500490565b600081600019048311821515161561201457612014611f5e565b500290565b634e487b7160e01b600052603260045260246000fd5b60006001820161204157612041611f5e565b5060010190565b600181815b8085111561208357816000190482111561206957612069611f5e565b8085161561207657918102915b93841c939080029061204d565b509250929050565b60008261209a575060016105dc565b816120a7575060006105dc565b81600181146120bd57600281146120c7576120e3565b60019150506105dc565b60ff8411156120d8576120d8611f5e565b50506001821b6105dc565b5060208310610133831016604e8410600b8410161715612106575081810a6105dc565b6121108383612048565b806000190482111561212457612124611f5e565b029392505050565b6000611576838361208b565b60006020828403121561214a57600080fd5b815161157681611c7c565b60005b83811015612170578181015183820152602001612158565b83811115611a165750506000910152565b60008251612193818460208701612155565b9190910192915050565b60208152600082518060208401526121bc816040850160208701612155565b601f01601f1916919091016040019291505056fea26469706673582212207566f1b807c875d89923f9800c510d39b353b35a7f5ac627be477d515ebcddd864736f6c634300080d0033",
  "linkReferences": {},
  "deployedLinkReferences": {}
}