{
  "_format": "hh-sol-artifact-1",
  "contractName": "MothoraVault",
  "sourceName": "contracts/MothoraVault.sol",
  "abi": [
    {
      "inputs": [
        {
          "internalType": "address",
          "name": "_tokenAddress",
          "type": "address"
        },
        {
          "internalType": "address",
          "name": "_gameItemsAddress",
          "type": "address"
        },
        {
          "internalType": "address",
          "name": "_playerContractAddress",
          "type": "address"
        },
        {
          "internalType": "uint256",
          "name": "_epochRewardsPercentage",
          "type": "uint256"
        },
        {
          "internalType": "uint256",
          "name": "_epochDuration",
          "type": "uint256"
        }
      ],
      "stateMutability": "nonpayable",
      "type": "constructor"
    },
    {
      "anonymous": false,
      "inputs": [
        {
          "indexed": true,
          "internalType": "address",
          "name": "previousOwner",
          "type": "address"
        },
        {
          "indexed": true,
          "internalType": "address",
          "name": "newOwner",
          "type": "address"
        }
      ],
      "name": "OwnershipTransferred",
      "type": "event"
    },
    {
      "inputs": [
        {
          "internalType": "address",
          "name": "",
          "type": "address"
        }
      ],
      "name": "RewardsBalance",
      "outputs": [
        {
          "internalType": "uint256",
          "name": "",
          "type": "uint256"
        }
      ],
      "stateMutability": "view",
      "type": "function"
    },
    {
      "inputs": [
        {
          "internalType": "bool",
          "name": "autocompound",
          "type": "bool"
        }
      ],
      "name": "claimEpochRewards",
      "outputs": [],
      "stateMutability": "nonpayable",
      "type": "function"
    },
    {
      "inputs": [
        {
          "internalType": "uint256",
          "name": "_amount",
          "type": "uint256"
        }
      ],
      "name": "contributeVaultParts",
      "outputs": [],
      "stateMutability": "nonpayable",
      "type": "function"
    },
    {
      "inputs": [],
      "name": "distributeRewards",
      "outputs": [],
      "stateMutability": "nonpayable",
      "type": "function"
    },
    {
      "inputs": [
        {
          "internalType": "uint256",
          "name": "numerator",
          "type": "uint256"
        },
        {
          "internalType": "uint256",
          "name": "denominator",
          "type": "uint256"
        },
        {
          "internalType": "uint256",
          "name": "precision",
          "type": "uint256"
        }
      ],
      "name": "divider",
      "outputs": [
        {
          "internalType": "uint256",
          "name": "",
          "type": "uint256"
        }
      ],
      "stateMutability": "pure",
      "type": "function"
    },
    {
      "inputs": [],
      "name": "epochDuration",
      "outputs": [
        {
          "internalType": "uint256",
          "name": "",
          "type": "uint256"
        }
      ],
      "stateMutability": "view",
      "type": "function"
    },
    {
      "inputs": [],
      "name": "epochRewards",
      "outputs": [
        {
          "internalType": "uint256",
          "name": "",
          "type": "uint256"
        }
      ],
      "stateMutability": "view",
      "type": "function"
    },
    {
      "inputs": [],
      "name": "epochRewardsPercentage",
      "outputs": [
        {
          "internalType": "uint256",
          "name": "",
          "type": "uint256"
        }
      ],
      "stateMutability": "view",
      "type": "function"
    },
    {
      "inputs": [],
      "name": "epochStartTime",
      "outputs": [
        {
          "internalType": "uint256",
          "name": "",
          "type": "uint256"
        }
      ],
      "stateMutability": "view",
      "type": "function"
    },
    {
      "inputs": [],
      "name": "essenceInterface",
      "outputs": [
        {
          "internalType": "contract IERC20",
          "name": "",
          "type": "address"
        }
      ],
      "stateMutability": "view",
      "type": "function"
    },
    {
      "inputs": [
        {
          "internalType": "uint256",
          "name": "",
          "type": "uint256"
        }
      ],
      "name": "factionPartsBalance",
      "outputs": [
        {
          "internalType": "uint256",
          "name": "",
          "type": "uint256"
        }
      ],
      "stateMutability": "view",
      "type": "function"
    },
    {
      "inputs": [],
      "name": "factor1",
      "outputs": [
        {
          "internalType": "uint256",
          "name": "",
          "type": "uint256"
        }
      ],
      "stateMutability": "view",
      "type": "function"
    },
    {
      "inputs": [],
      "name": "factor2",
      "outputs": [
        {
          "internalType": "uint256",
          "name": "",
          "type": "uint256"
        }
      ],
      "stateMutability": "view",
      "type": "function"
    },
    {
      "inputs": [],
      "name": "factor3",
      "outputs": [
        {
          "internalType": "uint256",
          "name": "",
          "type": "uint256"
        }
      ],
      "stateMutability": "view",
      "type": "function"
    },
    {
      "inputs": [
        {
          "internalType": "address",
          "name": "_player",
          "type": "address"
        }
      ],
      "name": "getTotalBalance",
      "outputs": [
        {
          "internalType": "uint256",
          "name": "balance",
          "type": "uint256"
        },
        {
          "internalType": "uint256",
          "name": "stakedBalance",
          "type": "uint256"
        },
        {
          "internalType": "uint256",
          "name": "pendingRewards",
          "type": "uint256"
        }
      ],
      "stateMutability": "view",
      "type": "function"
    },
    {
      "inputs": [],
      "name": "lastDistributionTime",
      "outputs": [
        {
          "internalType": "uint256",
          "name": "",
          "type": "uint256"
        }
      ],
      "stateMutability": "view",
      "type": "function"
    },
    {
      "inputs": [],
      "name": "lastEpochTime",
      "outputs": [
        {
          "internalType": "uint256",
          "name": "",
          "type": "uint256"
        }
      ],
      "stateMutability": "view",
      "type": "function"
    },
    {
      "inputs": [
        {
          "internalType": "address",
          "name": "",
          "type": "address"
        }
      ],
      "name": "lastUpdate",
      "outputs": [
        {
          "internalType": "uint256",
          "name": "",
          "type": "uint256"
        }
      ],
      "stateMutability": "view",
      "type": "function"
    },
    {
      "inputs": [],
      "name": "maxedFactor1",
      "outputs": [
        {
          "internalType": "uint256",
          "name": "",
          "type": "uint256"
        }
      ],
      "stateMutability": "view",
      "type": "function"
    },
    {
      "inputs": [],
      "name": "maxedFactor2",
      "outputs": [
        {
          "internalType": "uint256",
          "name": "",
          "type": "uint256"
        }
      ],
      "stateMutability": "view",
      "type": "function"
    },
    {
      "inputs": [],
      "name": "maxedFactor3",
      "outputs": [
        {
          "internalType": "uint256",
          "name": "",
          "type": "uint256"
        }
      ],
      "stateMutability": "view",
      "type": "function"
    },
    {
      "inputs": [
        {
          "internalType": "address",
          "name": "",
          "type": "address"
        },
        {
          "internalType": "address",
          "name": "",
          "type": "address"
        },
        {
          "internalType": "uint256[]",
          "name": "",
          "type": "uint256[]"
        },
        {
          "internalType": "uint256[]",
          "name": "",
          "type": "uint256[]"
        },
        {
          "internalType": "bytes",
          "name": "",
          "type": "bytes"
        }
      ],
      "name": "onERC1155BatchReceived",
      "outputs": [
        {
          "internalType": "bytes4",
          "name": "",
          "type": "bytes4"
        }
      ],
      "stateMutability": "nonpayable",
      "type": "function"
    },
    {
      "inputs": [
        {
          "internalType": "address",
          "name": "",
          "type": "address"
        },
        {
          "internalType": "address",
          "name": "",
          "type": "address"
        },
        {
          "internalType": "uint256",
          "name": "",
          "type": "uint256"
        },
        {
          "internalType": "uint256",
          "name": "",
          "type": "uint256"
        },
        {
          "internalType": "bytes",
          "name": "",
          "type": "bytes"
        }
      ],
      "name": "onERC1155Received",
      "outputs": [
        {
          "internalType": "bytes4",
          "name": "",
          "type": "bytes4"
        }
      ],
      "stateMutability": "nonpayable",
      "type": "function"
    },
    {
      "inputs": [],
      "name": "owner",
      "outputs": [
        {
          "internalType": "address",
          "name": "",
          "type": "address"
        }
      ],
      "stateMutability": "view",
      "type": "function"
    },
    {
      "inputs": [
        {
          "internalType": "uint256",
          "name": "",
          "type": "uint256"
        }
      ],
      "name": "playerAddresses",
      "outputs": [
        {
          "internalType": "address",
          "name": "",
          "type": "address"
        }
      ],
      "stateMutability": "view",
      "type": "function"
    },
    {
      "inputs": [],
      "name": "playerId",
      "outputs": [
        {
          "internalType": "uint256",
          "name": "",
          "type": "uint256"
        }
      ],
      "stateMutability": "view",
      "type": "function"
    },
    {
      "inputs": [
        {
          "internalType": "address",
          "name": "",
          "type": "address"
        }
      ],
      "name": "playerIds",
      "outputs": [
        {
          "internalType": "uint256",
          "name": "",
          "type": "uint256"
        }
      ],
      "stateMutability": "view",
      "type": "function"
    },
    {
      "inputs": [
        {
          "internalType": "address",
          "name": "",
          "type": "address"
        }
      ],
      "name": "playerStakedPartsBalance",
      "outputs": [
        {
          "internalType": "uint256",
          "name": "",
          "type": "uint256"
        }
      ],
      "stateMutability": "view",
      "type": "function"
    },
    {
      "inputs": [],
      "name": "renounceOwnership",
      "outputs": [],
      "stateMutability": "nonpayable",
      "type": "function"
    },
    {
      "inputs": [
        {
          "internalType": "uint256",
          "name": "_amount",
          "type": "uint256"
        }
      ],
      "name": "stakeTokens",
      "outputs": [],
      "stateMutability": "nonpayable",
      "type": "function"
    },
    {
      "inputs": [
        {
          "internalType": "address",
          "name": "",
          "type": "address"
        }
      ],
      "name": "stakedDuration",
      "outputs": [
        {
          "internalType": "uint256",
          "name": "",
          "type": "uint256"
        }
      ],
      "stateMutability": "view",
      "type": "function"
    },
    {
      "inputs": [
        {
          "internalType": "address",
          "name": "",
          "type": "address"
        }
      ],
      "name": "stakedESSBalance",
      "outputs": [
        {
          "internalType": "uint256",
          "name": "",
          "type": "uint256"
        }
      ],
      "stateMutability": "view",
      "type": "function"
    },
    {
      "inputs": [
        {
          "internalType": "bytes4",
          "name": "interfaceId",
          "type": "bytes4"
        }
      ],
      "name": "supportsInterface",
      "outputs": [
        {
          "internalType": "bool",
          "name": "",
          "type": "bool"
        }
      ],
      "stateMutability": "view",
      "type": "function"
    },
    {
      "inputs": [
        {
          "internalType": "address",
          "name": "",
          "type": "address"
        }
      ],
      "name": "timeTier",
      "outputs": [
        {
          "internalType": "uint256",
          "name": "",
          "type": "uint256"
        }
      ],
      "stateMutability": "view",
      "type": "function"
    },
    {
      "inputs": [],
      "name": "totalStakedBalance",
      "outputs": [
        {
          "internalType": "uint256",
          "name": "",
          "type": "uint256"
        }
      ],
      "stateMutability": "view",
      "type": "function"
    },
    {
      "inputs": [],
      "name": "totalVaultPartsContributed",
      "outputs": [
        {
          "internalType": "uint256",
          "name": "",
          "type": "uint256"
        }
      ],
      "stateMutability": "view",
      "type": "function"
    },
    {
      "inputs": [
        {
          "internalType": "address",
          "name": "newOwner",
          "type": "address"
        }
      ],
      "name": "transferOwnership",
      "outputs": [],
      "stateMutability": "nonpayable",
      "type": "function"
    },
    {
      "inputs": [
        {
          "internalType": "uint256",
          "name": "_amount",
          "type": "uint256"
        }
      ],
      "name": "unstakeTokens",
      "outputs": [],
      "stateMutability": "nonpayable",
      "type": "function"
    }
  ],
  "bytecode": "0x60806040523480156200001157600080fd5b506040516200231538038062002315833981016040819052620000349162000101565b6200003f3362000094565b60018055600a80546001600160a01b03199081166001600160a01b0397881617909155600c8054821695871695909517909455600d80549094169290941691909117909155601255601355426014556200015e565b600080546001600160a01b038381166001600160a01b0319831681178455604051919092169283917f8be0079c531659141344cd1fd0a4f28419497f9722a3daafe3b4186f6b6457e09190a35050565b80516001600160a01b0381168114620000fc57600080fd5b919050565b600080600080600060a086880312156200011a57600080fd5b6200012586620000e4565b94506200013560208701620000e4565b93506200014560408701620000e4565b6060870151608090970151959894975095949392505050565b6121a7806200016e6000396000f3fe608060405234801561001057600080fd5b50600436106102325760003560e01c806375b1735011610130578063cb03fb1e116100b8578063eaaa1b1d1161007c578063eaaa1b1d146104e8578063f23a6e6114610508578063f2fde38b14610527578063f60ca6411461053a578063ffc1a8de1461054357600080fd5b8063cb03fb1e1461045e578063d36ec0611461047e578063d3d381931461049e578063d7f81f36146104cc578063e12a7700146104df57600080fd5b806388e1e939116100ff57806388e1e939146103e357806389c614b8146104035780638ace109f1461040c5780638da5cb5b14610415578063bc197c811461042657600080fd5b806375b17350146103bf578063773f7a3a146103c85780637d9f2155146103d157806384e93663146103da57600080fd5b80634c880e22116101be5780636f4a2cd0116101825780636f4a2cd014610380578063713c0e1a14610388578063715018a61461039157806372cf1773146103995780637547c7a3146103ac57600080fd5b80634c880e221461031b5780634ff0876a146103245780635ca5e0681461032d578063608e4dd01461034d578063696786d31461036057600080fd5b806315c6aee21161020557806315c6aee2146102c15780632ee981e6146102d457806334a0d80e146102dd5780633c41ed43146102e657806344cfedbd146102fb57600080fd5b806301ffc9a7146102375780630620eedc1461025f5780630f3c1fe51461027657806313476a4614610296575b600080fd5b61024a610245366004611ba3565b61054c565b60405190151581526020015b60405180910390f35b610268600e5481565b604051908152602001610256565b610268610284366004611be9565b60086020526000908152604090205481565b600a546102a9906001600160a01b031681565b6040516001600160a01b039091168152602001610256565b6102a96102cf366004611c04565b610583565b610268601b5481565b61026860165481565b6102f96102f4366004611c04565b6105ad565b005b610268610309366004611be9565b60056020526000908152604090205481565b610268601a5481565b61026860135481565b61026861033b366004611c04565b60096020526000908152604090205481565b6102f961035b366004611c04565b6108c8565b61026861036e366004611be9565b60076020526000908152604090205481565b6102f9610a44565b610268601d5481565b6102f96112fa565b6102f96103a7366004611c2b565b61132e565b6102f96103ba366004611c04565b61138d565b61026860115481565b610268600f5481565b61026860175481565b61026860125481565b6102686103f1366004611be9565b60026020526000908152604090205481565b61026860155481565b61026860185481565b6000546001600160a01b03166102a9565b610445610434366004611d74565b63bc197c8160e01b95945050505050565b6040516001600160e01b03199091168152602001610256565b61026861046c366004611be9565b60066020526000908152604090205481565b61026861048c366004611be9565b60046020526000908152604090205481565b6104b16104ac366004611be9565b611429565b60408051938452602084019290925290820152606001610256565b6102686104da366004611e1e565b6114d0565b61026860195481565b6102686104f6366004611be9565b60036020526000908152604090205481565b610445610516366004611e4a565b63f23a6e6160e01b95945050505050565b6102f9610535366004611be9565b61151e565b61026860145481565b61026860105481565b60006001600160e01b03198216630271189760e51b148061057d57506301ffc9a760e01b6001600160e01b03198316145b92915050565b601c818154811061059357600080fd5b6000918252602090912001546001600160a01b0316905081565b6002600154036105d85760405162461bcd60e51b81526004016105cf90611eaf565b60405180910390fd5b60026001558061062a5760405162461bcd60e51b815260206004820152601a60248201527f416d6f756e74206d757374206265206d6f7265207468616e203000000000000060448201526064016105cf565b600c54604080516393e6198760e01b8152905183926001600160a01b03169162fdd58e91339184916393e61987916004808201926020929091908290030181865afa15801561067d573d6000803e3d6000fd5b505050506040513d601f19601f820116820180604052508101906106a19190611ee6565b6040516001600160e01b031960e085901b1681526001600160a01b0390921660048301526024820152604401602060405180830381865afa1580156106ea573d6000803e3d6000fd5b505050506040513d601f19601f8201168201806040525081019061070e9190611ee6565b10156107705760405162461bcd60e51b815260206004820152602b60248201527f54686520506c6179657220646f6573206e6f74206861766520656e6f7567682060448201526a5661756c7420506172747360a81b60648201526084016105cf565b600c54604051637921219560e11b81523360048201523060248201526000604482018190526064820184905260a0608483015260a48201526001600160a01b039091169063f242432a9060c401600060405180830381600087803b1580156107d757600080fd5b505af11580156107eb573d6000803e3d6000fd5b5050336000908152600860205260408120805485945090925061080f908490611f15565b9091555050600d5460405163de325b8f60e01b815233600482015282916009916000916001600160a01b03169063de325b8f90602401602060405180830381865afa158015610862573d6000803e3d6000fd5b505050506040513d601f19601f820116820180604052508101906108869190611ee6565b815260200190815260200160002060008282546108a39190611f15565b9250508190555080601060008282546108bc9190611f15565b90915550506001805550565b6002600154036108ea5760405162461bcd60e51b81526004016105cf90611eaf565b60026001558061093c5760405162461bcd60e51b815260206004820152601b60248201527f416d6f756e74206d757374206265206d6f7265207468616e20302e000000000060448201526064016105cf565b336000908152600260205260409020546109985760405162461bcd60e51b815260206004820152601b60248201527f5374616b696e672062616c616e63652063616e6e6f742062652030000000000060448201526064016105cf565b33600090815260026020526040902054811115610a0c5760405162461bcd60e51b815260206004820152602c60248201527f43616e6e6f7420756e7374616b65206d6f7265207468616e20796f757220737460448201526b616b65642062616c616e636560a01b60648201526084016105cf565b3360009081526002602052604081208054839290610a2b908490611f2d565b9250508190555080600e60008282546108bc9190611f2d565b6000546001600160a01b03163314610a6e5760405162461bcd60e51b81526004016105cf90611f44565b6000600e5411610ac05760405162461bcd60e51b815260206004820152601a60248201527f546865726520617265206e6f20746f6b656e73207374616b656400000000000060448201526064016105cf565b601354601454610ad09042611f2d565b610ada9190611f79565b601354610ae79190611f9b565b601454610af49190611f15565b601581905560115410610b5e5760405162461bcd60e51b815260206004820152602c60248201527f54686520706c617965722068617320616c726561647920636c61696d6564206960448201526b0dc40e8d0d2e640cae0dec6d60a31b60648201526084016105cf565b610b89601254600e54610b719190611f9b565b610b7d90610258611f9b565b63bbf81e0060006114d0565b600f55600060165560015b601d548111610c5057610bd7601c610bad600184611f2d565b81548110610bbd57610bbd611fba565b6000918252602090912001546001600160a01b03166115b9565b60026000601c610be8600186611f2d565b81548110610bf857610bf8611fba565b60009182526020808320909101546001600160a01b03168352820192909252604001902054610c279190611f9b565b60166000828254610c389190611f15565b90915550819050610c4881611fd0565b915050610b94565b506010546017556003600081905260096020527fc575c31fea594a6eb97c8e9d3f9caee4c16218c6ef37e923234c0fe9014a61e754600d54604051633093550960e01b815291926001600160a01b0390911691633093550991610cb99160040190815260200190565b602060405180830381865afa158015610cd6573d6000803e3d6000fd5b505050506040513d601f19601f82011682018060405250810190610cfa9190611ee6565b610d049190611f9b565b6002600081905260096020527f6cde3cea4b3a3fb2488b2808bae7556f4a405e50f65e1794383bc026131b13c354600d54604051633093550960e01b815291926001600160a01b0390911691633093550991610d669160040190815260200190565b602060405180830381865afa158015610d83573d6000803e3d6000fd5b505050506040513d601f19601f82011682018060405250810190610da79190611ee6565b610db19190611f9b565b6001600081905260096020527f92e85d02570a8092d09a6e3a57665bc3815a2699a4074001bf1ccabf660f5a3654600d54604051633093550960e01b815291926001600160a01b0390911691633093550991610e139160040190815260200190565b602060405180830381865afa158015610e30573d6000803e3d6000fd5b505050506040513d601f19601f82011682018060405250810190610e549190611ee6565b610e5e9190611f9b565b610e689190611f15565b610e729190611f15565b601855601054156111005760015b601d5481116110f957610e99601c610bad600184611f2d565b60026000601c610eaa600186611f2d565b81548110610eba57610eba611fba565b60009182526020808320909101546001600160a01b03168352820192909252604001902054610ee99190611f9b565b60195560086000601c610efd600185611f2d565b81548110610f0d57610f0d611fba565b60009182526020808320909101546001600160a01b039081168452908301939093526040909101812054601a55600d546009921663de325b8f601c610f53600187611f2d565b81548110610f6357610f63611fba565b60009182526020909120015460405160e083901b6001600160e01b03191681526001600160a01b039091166004820152602401602060405180830381865afa158015610fb3573d6000803e3d6000fd5b505050506040513d601f19601f82011682018060405250810190610fd79190611ee6565b8152602081019190915260400160002054601b819055600f5461101e91610fff906005611f9b565b6110099190611f9b565b601854611017906064611f9b565b60006114d0565b61104b600f54601a5460196110339190611f9b565b61103d9190611f9b565b601754611017906064611f9b565b611078600f5460195460466110609190611f9b565b61106a9190611f9b565b601654611017906064611f9b565b6110829190611f15565b61108c9190611f15565b60036000601c61109d600186611f2d565b815481106110ad576110ad611fba565b60009182526020808320909101546001600160a01b03168352820192909252604001812080549091906110e1908490611f15565b909155508190506110f181611fd0565b915050610e80565b5042601155565b60015b601d5481116110f95761111c601c610bad600184611f2d565b60026000601c61112d600186611f2d565b8154811061113d5761113d611fba565b60009182526020808320909101546001600160a01b0316835282019290925260400190205461116c9190611f9b565b60195560086000601c611180600185611f2d565b8154811061119057611190611fba565b60009182526020808320909101546001600160a01b039081168452908301939093526040909101812054601a55600d546009921663de325b8f601c6111d6600187611f2d565b815481106111e6576111e6611fba565b60009182526020909120015460405160e083901b6001600160e01b03191681526001600160a01b039091166004820152602401602060405180830381865afa158015611236573d6000803e3d6000fd5b505050506040513d601f19601f8201168201806040525081019061125a9190611ee6565b8152602081019190915260400160002054601b55600f5460195461128b9161128191611f9b565b60165460006114d0565b60036000601c61129c600186611f2d565b815481106112ac576112ac611fba565b60009182526020808320909101546001600160a01b03168352820192909252604001812080549091906112e0908490611f15565b909155508190506112f081611fd0565b915050611103565b565b6000546001600160a01b031633146113245760405162461bcd60e51b81526004016105cf90611f44565b6112f86000611785565b8015611352573360009081526003602052604090205461134d906117d5565b61137a565b33600081815260036020526040902054600a5461137a926001600160a01b0390911691611917565b5033600090815260036020526040812055565b6002600154036113af5760405162461bcd60e51b81526004016105cf90611eaf565b6002600155806114015760405162461bcd60e51b815260206004820152601b60248201527f416d6f756e74206d757374206265206d6f7265207468616e20302e000000000060448201526064016105cf565b600a54611419906001600160a01b031633308461197f565b611422816117d5565b5060018055565b600a546040516370a0823160e01b81526001600160a01b03838116600483015260009283928392909116906370a0823190602401602060405180830381865afa15801561147a573d6000803e3d6000fd5b505050506040513d601f19601f8201168201806040525081019061149e9190611ee6565b6001600160a01b0394909416600090815260026020908152604080832054600390925290912054949590949350915050565b6000600a836114e0846001611f15565b6114eb90600a6120cd565b6114f59087611f9b565b6114ff9190611f79565b61150a906005611f15565b6115149190611f79565b90505b9392505050565b6000546001600160a01b031633146115485760405162461bcd60e51b81526004016105cf90611f44565b6001600160a01b0381166115ad5760405162461bcd60e51b815260206004820152602660248201527f4f776e61626c653a206e6577206f776e657220697320746865207a65726f206160448201526564647265737360d01b60648201526084016105cf565b6115b681611785565b50565b6001600160a01b0381166000908152600660205260408120546115dc9042611f2d565b6001600160a01b03831660009081526005602052604081208054909190611604908490611f15565b90915550506001600160a01b0382166000908152600660209081526040808320429055600590915290205461025810611658576001600160a01b0382166000908152600760205260409020600a9055611769565b6001600160a01b03821660009081526005602052604090205461025810801561169b57506001600160a01b0382166000908152600560205260409020546104b010155b156116c1576001600160a01b0382166000908152600760205260409020600d9055611769565b6001600160a01b0382166000908152600560205260409020546104b010801561170457506001600160a01b038216600090815260056020526040902054610bb810155b1561172a576001600160a01b038216600090815260076020526040902060109055611769565b6001600160a01b038216600090815260056020526040902054610bb81015611769576001600160a01b0382166000908152600760205260409020601490555b506001600160a01b031660009081526007602052604090205490565b600080546001600160a01b038381166001600160a01b0319831681178455604051919092169283917f8be0079c531659141344cd1fd0a4f28419497f9722a3daafe3b4186f6b6457e09190a35050565b33600090815260026020526040812054908190036118875733600090815260046020526040812054900361187057601d805490600061181383611fd0565b9091555050601d5433600081815260046020526040812092909255601c805460018101825592527f0e4562a10381dec21b205ed72637e6b1b523bdd0e4d4d50af5cd23dd4500a21190910180546001600160a01b03191690911790555b3360009081526006602052604090204290556118d6565b336000908152600260205260409020546118a19082611f79565b336000908152600660205260409020546118bb9042611f2d565b6118c59190611f9b565b336000908152600560205260409020555b33600090815260026020526040812080548492906118f5908490611f15565b9250508190555081600e600082825461190e9190611f15565b90915550505050565b6040516001600160a01b03831660248201526044810182905261197a90849063a9059cbb60e01b906064015b60408051601f198184030181529190526020810180516001600160e01b03166001600160e01b0319909316929092179091526119bd565b505050565b6040516001600160a01b03808516602483015283166044820152606481018290526119b79085906323b872dd60e01b90608401611943565b50505050565b6000611a12826040518060400160405280602081526020017f5361666545524332303a206c6f772d6c6576656c2063616c6c206661696c6564815250856001600160a01b0316611a8f9092919063ffffffff16565b80519091501561197a5780806020019051810190611a3091906120d9565b61197a5760405162461bcd60e51b815260206004820152602a60248201527f5361666545524332303a204552433230206f7065726174696f6e20646964206e6044820152691bdd081cdd58d8d9595960b21b60648201526084016105cf565b60606115148484600085856001600160a01b0385163b611af15760405162461bcd60e51b815260206004820152601d60248201527f416464726573733a2063616c6c20746f206e6f6e2d636f6e747261637400000060448201526064016105cf565b600080866001600160a01b03168587604051611b0d9190612122565b60006040518083038185875af1925050503d8060008114611b4a576040519150601f19603f3d011682016040523d82523d6000602084013e611b4f565b606091505b5091509150611b5f828286611b6a565b979650505050505050565b60608315611b79575081611517565b825115611b895782518084602001fd5b8160405162461bcd60e51b81526004016105cf919061213e565b600060208284031215611bb557600080fd5b81356001600160e01b03198116811461151757600080fd5b80356001600160a01b0381168114611be457600080fd5b919050565b600060208284031215611bfb57600080fd5b61151782611bcd565b600060208284031215611c1657600080fd5b5035919050565b80151581146115b657600080fd5b600060208284031215611c3d57600080fd5b813561151781611c1d565b634e487b7160e01b600052604160045260246000fd5b604051601f8201601f1916810167ffffffffffffffff81118282101715611c8757611c87611c48565b604052919050565b600082601f830112611ca057600080fd5b8135602067ffffffffffffffff821115611cbc57611cbc611c48565b8160051b611ccb828201611c5e565b9283528481018201928281019087851115611ce557600080fd5b83870192505b84831015611b5f57823582529183019190830190611ceb565b600082601f830112611d1557600080fd5b813567ffffffffffffffff811115611d2f57611d2f611c48565b611d42601f8201601f1916602001611c5e565b818152846020838601011115611d5757600080fd5b816020850160208301376000918101602001919091529392505050565b600080600080600060a08688031215611d8c57600080fd5b611d9586611bcd565b9450611da360208701611bcd565b9350604086013567ffffffffffffffff80821115611dc057600080fd5b611dcc89838a01611c8f565b94506060880135915080821115611de257600080fd5b611dee89838a01611c8f565b93506080880135915080821115611e0457600080fd5b50611e1188828901611d04565b9150509295509295909350565b600080600060608486031215611e3357600080fd5b505081359360208301359350604090920135919050565b600080600080600060a08688031215611e6257600080fd5b611e6b86611bcd565b9450611e7960208701611bcd565b93506040860135925060608601359150608086013567ffffffffffffffff811115611ea357600080fd5b611e1188828901611d04565b6020808252601f908201527f5265656e7472616e637947756172643a207265656e7472616e742063616c6c00604082015260600190565b600060208284031215611ef857600080fd5b5051919050565b634e487b7160e01b600052601160045260246000fd5b60008219821115611f2857611f28611eff565b500190565b600082821015611f3f57611f3f611eff565b500390565b6020808252818101527f4f776e61626c653a2063616c6c6572206973206e6f7420746865206f776e6572604082015260600190565b600082611f9657634e487b7160e01b600052601260045260246000fd5b500490565b6000816000190483118215151615611fb557611fb5611eff565b500290565b634e487b7160e01b600052603260045260246000fd5b600060018201611fe257611fe2611eff565b5060010190565b600181815b8085111561202457816000190482111561200a5761200a611eff565b8085161561201757918102915b93841c9390800290611fee565b509250929050565b60008261203b5750600161057d565b816120485750600061057d565b816001811461205e576002811461206857612084565b600191505061057d565b60ff84111561207957612079611eff565b50506001821b61057d565b5060208310610133831016604e8410600b84101617156120a7575081810a61057d565b6120b18383611fe9565b80600019048211156120c5576120c5611eff565b029392505050565b6000611517838361202c565b6000602082840312156120eb57600080fd5b815161151781611c1d565b60005b838110156121115781810151838201526020016120f9565b838111156119b75750506000910152565b600082516121348184602087016120f6565b9190910192915050565b602081526000825180602084015261215d8160408501602087016120f6565b601f01601f1916919091016040019291505056fea264697066735822122033d6c10aabf74526fd3525d9de38252c4faa59fa349f2efcec67885dd40af07e64736f6c634300080d0033",
  "linkReferences": {},
  "deployedLinkReferences": {}
}