{
  "_format": "hh-sol-artifact-1",
  "contractName": "GameItems",
  "sourceName": "contracts/GameItems.sol",
  "abi": [
    {
      "inputs": [
        {
          "internalType": "string",
          "name": "_initialFolder",
          "type": "string"
        },
        {
          "internalType": "address",
          "name": "_playerContractAddress",
          "type": "address"
        }
      ],
      "stateMutability": "nonpayable",
      "type": "constructor"
    },
    {
      "anonymous": false,
      "inputs": [
        {
          "indexed": true,
          "internalType": "address",
          "name": "account",
          "type": "address"
        },
        {
          "indexed": true,
          "internalType": "address",
          "name": "operator",
          "type": "address"
        },
        {
          "indexed": false,
          "internalType": "bool",
          "name": "approved",
          "type": "bool"
        }
      ],
      "name": "ApprovalForAll",
      "type": "event"
    },
    {
      "anonymous": false,
      "inputs": [
        {
          "indexed": true,
          "internalType": "address",
          "name": "previousOwner",
          "type": "address"
        },
        {
          "indexed": true,
          "internalType": "address",
          "name": "newOwner",
          "type": "address"
        }
      ],
      "name": "OwnershipTransferred",
      "type": "event"
    },
    {
      "anonymous": false,
      "inputs": [
        {
          "indexed": true,
          "internalType": "address",
          "name": "operator",
          "type": "address"
        },
        {
          "indexed": true,
          "internalType": "address",
          "name": "from",
          "type": "address"
        },
        {
          "indexed": true,
          "internalType": "address",
          "name": "to",
          "type": "address"
        },
        {
          "indexed": false,
          "internalType": "uint256[]",
          "name": "ids",
          "type": "uint256[]"
        },
        {
          "indexed": false,
          "internalType": "uint256[]",
          "name": "values",
          "type": "uint256[]"
        }
      ],
      "name": "TransferBatch",
      "type": "event"
    },
    {
      "anonymous": false,
      "inputs": [
        {
          "indexed": true,
          "internalType": "address",
          "name": "operator",
          "type": "address"
        },
        {
          "indexed": true,
          "internalType": "address",
          "name": "from",
          "type": "address"
        },
        {
          "indexed": true,
          "internalType": "address",
          "name": "to",
          "type": "address"
        },
        {
          "indexed": false,
          "internalType": "uint256",
          "name": "id",
          "type": "uint256"
        },
        {
          "indexed": false,
          "internalType": "uint256",
          "name": "value",
          "type": "uint256"
        }
      ],
      "name": "TransferSingle",
      "type": "event"
    },
    {
      "anonymous": false,
      "inputs": [
        {
          "indexed": false,
          "internalType": "string",
          "name": "value",
          "type": "string"
        },
        {
          "indexed": true,
          "internalType": "uint256",
          "name": "id",
          "type": "uint256"
        }
      ],
      "name": "URI",
      "type": "event"
    },
    {
      "inputs": [],
      "name": "CONGLOMERATE",
      "outputs": [
        {
          "internalType": "uint256",
          "name": "",
          "type": "uint256"
        }
      ],
      "stateMutability": "view",
      "type": "function"
    },
    {
      "inputs": [],
      "name": "DOC",
      "outputs": [
        {
          "internalType": "uint256",
          "name": "",
          "type": "uint256"
        }
      ],
      "stateMutability": "view",
      "type": "function"
    },
    {
      "inputs": [],
      "name": "VAHNU",
      "outputs": [
        {
          "internalType": "uint256",
          "name": "",
          "type": "uint256"
        }
      ],
      "stateMutability": "view",
      "type": "function"
    },
    {
      "inputs": [],
      "name": "VAULTPARTS",
      "outputs": [
        {
          "internalType": "uint256",
          "name": "",
          "type": "uint256"
        }
      ],
      "stateMutability": "view",
      "type": "function"
    },
    {
      "inputs": [
        {
          "internalType": "address",
          "name": "operator",
          "type": "address"
        }
      ],
      "name": "approveStakeVaultParts",
      "outputs": [],
      "stateMutability": "nonpayable",
      "type": "function"
    },
    {
      "inputs": [
        {
          "internalType": "address",
          "name": "account",
          "type": "address"
        },
        {
          "internalType": "uint256",
          "name": "id",
          "type": "uint256"
        }
      ],
      "name": "balanceOf",
      "outputs": [
        {
          "internalType": "uint256",
          "name": "",
          "type": "uint256"
        }
      ],
      "stateMutability": "view",
      "type": "function"
    },
    {
      "inputs": [
        {
          "internalType": "address[]",
          "name": "accounts",
          "type": "address[]"
        },
        {
          "internalType": "uint256[]",
          "name": "ids",
          "type": "uint256[]"
        }
      ],
      "name": "balanceOfBatch",
      "outputs": [
        {
          "internalType": "uint256[]",
          "name": "",
          "type": "uint256[]"
        }
      ],
      "stateMutability": "view",
      "type": "function"
    },
    {
      "inputs": [
        {
          "internalType": "address",
          "name": "account",
          "type": "address"
        },
        {
          "internalType": "address",
          "name": "operator",
          "type": "address"
        }
      ],
      "name": "isApprovedForAll",
      "outputs": [
        {
          "internalType": "bool",
          "name": "",
          "type": "bool"
        }
      ],
      "stateMutability": "view",
      "type": "function"
    },
    {
      "inputs": [
        {
          "internalType": "address",
          "name": "_recipient",
          "type": "address"
        },
        {
          "internalType": "uint256",
          "name": "_id",
          "type": "uint256"
        }
      ],
      "name": "mintCharacter",
      "outputs": [],
      "stateMutability": "nonpayable",
      "type": "function"
    },
    {
      "inputs": [
        {
          "internalType": "address",
          "name": "recipient",
          "type": "address"
        },
        {
          "internalType": "uint256",
          "name": "amount",
          "type": "uint256"
        }
      ],
      "name": "mintVaultParts",
      "outputs": [],
      "stateMutability": "nonpayable",
      "type": "function"
    },
    {
      "inputs": [],
      "name": "owner",
      "outputs": [
        {
          "internalType": "address",
          "name": "",
          "type": "address"
        }
      ],
      "stateMutability": "view",
      "type": "function"
    },
    {
      "inputs": [],
      "name": "playerContractAddress",
      "outputs": [
        {
          "internalType": "address",
          "name": "",
          "type": "address"
        }
      ],
      "stateMutability": "view",
      "type": "function"
    },
    {
      "inputs": [],
      "name": "renounceOwnership",
      "outputs": [],
      "stateMutability": "nonpayable",
      "type": "function"
    },
    {
      "inputs": [
        {
          "internalType": "address",
          "name": "from",
          "type": "address"
        },
        {
          "internalType": "address",
          "name": "to",
          "type": "address"
        },
        {
          "internalType": "uint256[]",
          "name": "ids",
          "type": "uint256[]"
        },
        {
          "internalType": "uint256[]",
          "name": "amounts",
          "type": "uint256[]"
        },
        {
          "internalType": "bytes",
          "name": "data",
          "type": "bytes"
        }
      ],
      "name": "safeBatchTransferFrom",
      "outputs": [],
      "stateMutability": "nonpayable",
      "type": "function"
    },
    {
      "inputs": [
        {
          "internalType": "address",
          "name": "from",
          "type": "address"
        },
        {
          "internalType": "address",
          "name": "to",
          "type": "address"
        },
        {
          "internalType": "uint256",
          "name": "id",
          "type": "uint256"
        },
        {
          "internalType": "uint256",
          "name": "amount",
          "type": "uint256"
        },
        {
          "internalType": "bytes",
          "name": "data",
          "type": "bytes"
        }
      ],
      "name": "safeTransferFrom",
      "outputs": [],
      "stateMutability": "nonpayable",
      "type": "function"
    },
    {
      "inputs": [
        {
          "internalType": "address",
          "name": "operator",
          "type": "address"
        },
        {
          "internalType": "bool",
          "name": "approved",
          "type": "bool"
        }
      ],
      "name": "setApprovalForAll",
      "outputs": [],
      "stateMutability": "nonpayable",
      "type": "function"
    },
    {
      "inputs": [
        {
          "internalType": "uint256",
          "name": "tokenId",
          "type": "uint256"
        },
        {
          "internalType": "string",
          "name": "NFTuri",
          "type": "string"
        }
      ],
      "name": "setTokenUri",
      "outputs": [],
      "stateMutability": "nonpayable",
      "type": "function"
    },
    {
      "inputs": [
        {
          "internalType": "bytes4",
          "name": "interfaceId",
          "type": "bytes4"
        }
      ],
      "name": "supportsInterface",
      "outputs": [
        {
          "internalType": "bool",
          "name": "",
          "type": "bool"
        }
      ],
      "stateMutability": "view",
      "type": "function"
    },
    {
      "inputs": [
        {
          "internalType": "address",
          "name": "newOwner",
          "type": "address"
        }
      ],
      "name": "transferOwnership",
      "outputs": [],
      "stateMutability": "nonpayable",
      "type": "function"
    },
    {
      "inputs": [
        {
          "internalType": "uint256",
          "name": "tokenId",
          "type": "uint256"
        }
      ],
      "name": "uri",
      "outputs": [
        {
          "internalType": "string",
          "name": "",
          "type": "string"
        }
      ],
      "stateMutability": "view",
      "type": "function"
    }
  ],
  "bytecode": "0x60806040523480156200001157600080fd5b506040516200205938038062002059833981016040819052620000349162000378565b8160405160200162000047919062000445565b60408051601f1981840301815291905262000062816200010f565b506200006e3362000128565b6200009d60008360405160200162000087919062000474565b60408051601f198184030181529190526200017a565b620000b6600183604051602001620000879190620004a9565b620000cf600283604051602001620000879190620004de565b620000e860038360405160200162000087919062000513565b600580546001600160a01b0319166001600160a01b03929092169190911790555062000584565b8051620001249060029060208401906200026c565b5050565b600380546001600160a01b038381166001600160a01b0319831681179093556040519116919082907f8be0079c531659141344cd1fd0a4f28419497f9722a3daafe3b4186f6b6457e090600090a35050565b6003546001600160a01b03163314620001da5760405162461bcd60e51b815260206004820181905260248201527f4f776e61626c653a2063616c6c6572206973206e6f7420746865206f776e657260448201526064015b60405180910390fd5b60008281526004602052604090208054620001f59062000548565b159050620002465760405162461bcd60e51b815260206004820152601560248201527f43616e6e6f7420736574207572692074776963652e00000000000000000000006044820152606401620001d1565b6000828152600460209081526040909120825162000267928401906200026c565b505050565b8280546200027a9062000548565b90600052602060002090601f0160209004810192826200029e5760008555620002e9565b82601f10620002b957805160ff1916838001178555620002e9565b82800160010185558215620002e9579182015b82811115620002e9578251825591602001919060010190620002cc565b50620002f7929150620002fb565b5090565b5b80821115620002f75760008155600101620002fc565b634e487b7160e01b600052604160045260246000fd5b60005b83811015620003455781810151838201526020016200032b565b8381111562000355576000848401525b50505050565b80516001600160a01b03811681146200037357600080fd5b919050565b600080604083850312156200038c57600080fd5b82516001600160401b0380821115620003a457600080fd5b818501915085601f830112620003b957600080fd5b815181811115620003ce57620003ce62000312565b604051601f8201601f19908116603f01168101908382118183101715620003f957620003f962000312565b816040528281528860208487010111156200041357600080fd5b6200042683602083016020880162000328565b80965050505050506200043c602084016200035b565b90509250929050565b600082516200045981846020870162000328565b683db4b23e973539b7b760b91b920191825250600901919050565b600082516200048881846020870162000328565b600360fc1b92019182525064173539b7b760d91b6001820152600601919050565b60008251620004bd81846020870162000328565b603160f81b92019182525064173539b7b760d91b6001820152600601919050565b60008251620004f281846020870162000328565b601960f91b92019182525064173539b7b760d91b6001820152600601919050565b600082516200052781846020870162000328565b603360f81b92019182525064173539b7b760d91b6001820152600601919050565b600181811c908216806200055d57607f821691505b6020821081036200057e57634e487b7160e01b600052602260045260246000fd5b50919050565b611ac580620005946000396000f3fe608060405234801561001057600080fd5b506004361061012b5760003560e01c8063715018a6116100ad578063d0fda67a11610071578063d0fda67a14610276578063dc02b9461461027e578063e985e9c514610291578063f242432a146102cd578063f2fde38b146102e057600080fd5b8063715018a61461023a57806388898601146102425780638da5cb5b1461024a57806393e619871461025b578063a22cb4651461026357600080fd5b806337b6541b116100f457806337b6541b146101c15780634e1273f4146101d45780634eda39e2146101f457806357f7789e1461021f5780635baa3a071461023257600080fd5b8062fdd58e1461013057806301ffc9a7146101565780630e89341c1461017957806314ff845c146101995780632eb2c2d6146101ae575b600080fd5b61014361013e366004611222565b6102f3565b6040519081526020015b60405180910390f35b610169610164366004611262565b61038a565b604051901515815260200161014d565b61018c610187366004611286565b6103dc565b60405161014d91906112ec565b6101ac6101a7366004611222565b61047e565b005b6101ac6101bc366004611455565b61056b565b6101ac6101cf3660046114ff565b610602565b6101e76101e236600461151a565b610611565b60405161014d9190611620565b600554610207906001600160a01b031681565b6040516001600160a01b03909116815260200161014d565b6101ac61022d366004611633565b61073b565b610143600381565b6101ac6107e9565b610143600181565b6003546001600160a01b0316610207565b610143600081565b6101ac610271366004611684565b61081f565b610143600281565b6101ac61028c366004611222565b61082a565b61016961029f3660046116c0565b6001600160a01b03918216600090815260016020908152604080832093909416825291909152205460ff1690565b6101ac6102db3660046116f3565b6108a0565b6101ac6102ee3660046114ff565b610927565b60006001600160a01b0383166103645760405162461bcd60e51b815260206004820152602b60248201527f455243313135353a2062616c616e636520717565727920666f7220746865207a60448201526a65726f206164647265737360a81b60648201526084015b60405180910390fd5b506000908152602081815260408083206001600160a01b03949094168352929052205490565b60006001600160e01b03198216636cdb3d1360e11b14806103bb57506001600160e01b031982166303a24d0760e21b145b806103d657506301ffc9a760e01b6001600160e01b03198316145b92915050565b60008181526004602052604090208054606091906103f990611758565b80601f016020809104026020016040519081016040528092919081815260200182805461042590611758565b80156104725780601f1061044757610100808354040283529160200191610472565b820191906000526020600020905b81548152906001019060200180831161045557829003601f168201915b50505050509050919050565b6005546001600160a01b031633146104d85760405162461bcd60e51b815260206004820152601c60248201527f4e6f7420706c6179657220636f6e747261637420616464726573732e00000000604482015260640161035b565b8061054b5760405162461bcd60e51b815260206004820152603c60248201527f54686520506c617965722063616e6e6f74206d696e74205661756c745061727460448201527f73206f6e204d696e744368617261637465722066756e6374696f6e2e00000000606482015260840161035b565b61056782826001604051806020016040528060008152506109bf565b5050565b6001600160a01b0385163314806105875750610587853361029f565b6105ee5760405162461bcd60e51b815260206004820152603260248201527f455243313135353a207472616e736665722063616c6c6572206973206e6f74206044820152711bdddb995c881b9bdc88185c1c1c9bdd995960721b606482015260840161035b565b6105fb8585858585610ad3565b5050505050565b61060e33826001610cb0565b50565b606081518351146106765760405162461bcd60e51b815260206004820152602960248201527f455243313135353a206163636f756e747320616e6420696473206c656e677468604482015268040dad2e6dac2e8c6d60bb1b606482015260840161035b565b6000835167ffffffffffffffff811115610692576106926112ff565b6040519080825280602002602001820160405280156106bb578160200160208202803683370190505b50905060005b8451811015610733576107068582815181106106df576106df611792565b60200260200101518583815181106106f9576106f9611792565b60200260200101516102f3565b82828151811061071857610718611792565b602090810291909101015261072c816117be565b90506106c1565b509392505050565b6003546001600160a01b031633146107655760405162461bcd60e51b815260040161035b906117d7565b6000828152600460205260409020805461077e90611758565b1590506107c55760405162461bcd60e51b815260206004820152601560248201527421b0b73737ba1039b2ba103ab934903a3bb4b1b29760591b604482015260640161035b565b600082815260046020908152604090912082516107e49284019061116d565b505050565b6003546001600160a01b031633146108135760405162461bcd60e51b815260040161035b906117d7565b61081d6000610d90565b565b610567338383610cb0565b6005546001600160a01b031633146108845760405162461bcd60e51b815260206004820152601c60248201527f4e6f7420706c6179657220636f6e747261637420616464726573732e00000000604482015260640161035b565b61056782600083604051806020016040528060008152506109bf565b6001600160a01b0385163314806108bc57506108bc853361029f565b61091a5760405162461bcd60e51b815260206004820152602960248201527f455243313135353a2063616c6c6572206973206e6f74206f776e6572206e6f7260448201526808185c1c1c9bdd995960ba1b606482015260840161035b565b6105fb8585858585610de2565b6003546001600160a01b031633146109515760405162461bcd60e51b815260040161035b906117d7565b6001600160a01b0381166109b65760405162461bcd60e51b815260206004820152602660248201527f4f776e61626c653a206e6577206f776e657220697320746865207a65726f206160448201526564647265737360d01b606482015260840161035b565b61060e81610d90565b6001600160a01b038416610a1f5760405162461bcd60e51b815260206004820152602160248201527f455243313135353a206d696e7420746f20746865207a65726f206164647265736044820152607360f81b606482015260840161035b565b336000610a2b85610f0c565b90506000610a3885610f0c565b90506000868152602081815260408083206001600160a01b038b16845290915281208054879290610a6a90849061180c565b909155505060408051878152602081018790526001600160a01b03808a1692600092918716917fc3d58168c5ae7397731d063d5bbf3d657854427343f4c083240f7aacaa2d0f62910160405180910390a4610aca83600089898989610f57565b50505050505050565b8151835114610b355760405162461bcd60e51b815260206004820152602860248201527f455243313135353a2069647320616e6420616d6f756e7473206c656e677468206044820152670dad2e6dac2e8c6d60c31b606482015260840161035b565b6001600160a01b038416610b5b5760405162461bcd60e51b815260040161035b90611824565b3360005b8451811015610c42576000858281518110610b7c57610b7c611792565b602002602001015190506000858381518110610b9a57610b9a611792565b602090810291909101810151600084815280835260408082206001600160a01b038e168352909352919091205490915081811015610bea5760405162461bcd60e51b815260040161035b90611869565b6000838152602081815260408083206001600160a01b038e8116855292528083208585039055908b16825281208054849290610c2790849061180c565b9250508190555050505080610c3b906117be565b9050610b5f565b50846001600160a01b0316866001600160a01b0316826001600160a01b03167f4a39dc06d4c0dbc64b70af90fd698a233a518aa5d07e595d983b8c0526c8f7fb8787604051610c929291906118b3565b60405180910390a4610ca88187878787876110b2565b505050505050565b816001600160a01b0316836001600160a01b031603610d235760405162461bcd60e51b815260206004820152602960248201527f455243313135353a2073657474696e6720617070726f76616c20737461747573604482015268103337b91039b2b63360b91b606482015260840161035b565b6001600160a01b03838116600081815260016020908152604080832094871680845294825291829020805460ff191686151590811790915591519182527f17307eab39ab6107e8899845ad3d59bd9653f200f220920489ca2b5937696c31910160405180910390a3505050565b600380546001600160a01b038381166001600160a01b0319831681179093556040519116919082907f8be0079c531659141344cd1fd0a4f28419497f9722a3daafe3b4186f6b6457e090600090a35050565b6001600160a01b038416610e085760405162461bcd60e51b815260040161035b90611824565b336000610e1485610f0c565b90506000610e2185610f0c565b90506000868152602081815260408083206001600160a01b038c16845290915290205485811015610e645760405162461bcd60e51b815260040161035b90611869565b6000878152602081815260408083206001600160a01b038d8116855292528083208985039055908a16825281208054889290610ea190849061180c565b909155505060408051888152602081018890526001600160a01b03808b16928c821692918816917fc3d58168c5ae7397731d063d5bbf3d657854427343f4c083240f7aacaa2d0f62910160405180910390a4610f01848a8a8a8a8a610f57565b505050505050505050565b60408051600180825281830190925260609160009190602080830190803683370190505090508281600081518110610f4657610f46611792565b602090810291909101015292915050565b6001600160a01b0384163b15610ca85760405163f23a6e6160e01b81526001600160a01b0385169063f23a6e6190610f9b90899089908890889088906004016118e1565b6020604051808303816000875af1925050508015610fd6575060408051601f3d908101601f19168201909252610fd391810190611926565b60015b61108257610fe2611943565b806308c379a00361101b5750610ff661195f565b80611001575061101d565b8060405162461bcd60e51b815260040161035b91906112ec565b505b60405162461bcd60e51b815260206004820152603460248201527f455243313135353a207472616e7366657220746f206e6f6e20455243313135356044820152732932b1b2b4bb32b91034b6b83632b6b2b73a32b960611b606482015260840161035b565b6001600160e01b0319811663f23a6e6160e01b14610aca5760405162461bcd60e51b815260040161035b906119e9565b6001600160a01b0384163b15610ca85760405163bc197c8160e01b81526001600160a01b0385169063bc197c81906110f69089908990889088908890600401611a31565b6020604051808303816000875af1925050508015611131575060408051601f3d908101601f1916820190925261112e91810190611926565b60015b61113d57610fe2611943565b6001600160e01b0319811663bc197c8160e01b14610aca5760405162461bcd60e51b815260040161035b906119e9565b82805461117990611758565b90600052602060002090601f01602090048101928261119b57600085556111e1565b82601f106111b457805160ff19168380011785556111e1565b828001600101855582156111e1579182015b828111156111e15782518255916020019190600101906111c6565b506111ed9291506111f1565b5090565b5b808211156111ed57600081556001016111f2565b80356001600160a01b038116811461121d57600080fd5b919050565b6000806040838503121561123557600080fd5b61123e83611206565b946020939093013593505050565b6001600160e01b03198116811461060e57600080fd5b60006020828403121561127457600080fd5b813561127f8161124c565b9392505050565b60006020828403121561129857600080fd5b5035919050565b6000815180845260005b818110156112c5576020818501810151868301820152016112a9565b818111156112d7576000602083870101525b50601f01601f19169290920160200192915050565b60208152600061127f602083018461129f565b634e487b7160e01b600052604160045260246000fd5b601f8201601f1916810167ffffffffffffffff8111828210171561133b5761133b6112ff565b6040525050565b600067ffffffffffffffff82111561135c5761135c6112ff565b5060051b60200190565b600082601f83011261137757600080fd5b8135602061138482611342565b6040516113918282611315565b83815260059390931b85018201928281019150868411156113b157600080fd5b8286015b848110156113cc57803583529183019183016113b5565b509695505050505050565b600067ffffffffffffffff8311156113f1576113f16112ff565b604051611408601f8501601f191660200182611315565b80915083815284848401111561141d57600080fd5b83836020830137600060208583010152509392505050565b600082601f83011261144657600080fd5b61127f838335602085016113d7565b600080600080600060a0868803121561146d57600080fd5b61147686611206565b945061148460208701611206565b9350604086013567ffffffffffffffff808211156114a157600080fd5b6114ad89838a01611366565b945060608801359150808211156114c357600080fd5b6114cf89838a01611366565b935060808801359150808211156114e557600080fd5b506114f288828901611435565b9150509295509295909350565b60006020828403121561151157600080fd5b61127f82611206565b6000806040838503121561152d57600080fd5b823567ffffffffffffffff8082111561154557600080fd5b818501915085601f83011261155957600080fd5b8135602061156682611342565b6040516115738282611315565b83815260059390931b850182019282810191508984111561159357600080fd5b948201945b838610156115b8576115a986611206565b82529482019490820190611598565b965050860135925050808211156115ce57600080fd5b506115db85828601611366565b9150509250929050565b600081518084526020808501945080840160005b83811015611615578151875295820195908201906001016115f9565b509495945050505050565b60208152600061127f60208301846115e5565b6000806040838503121561164657600080fd5b82359150602083013567ffffffffffffffff81111561166457600080fd5b8301601f8101851361167557600080fd5b6115db858235602084016113d7565b6000806040838503121561169757600080fd5b6116a083611206565b9150602083013580151581146116b557600080fd5b809150509250929050565b600080604083850312156116d357600080fd5b6116dc83611206565b91506116ea60208401611206565b90509250929050565b600080600080600060a0868803121561170b57600080fd5b61171486611206565b945061172260208701611206565b93506040860135925060608601359150608086013567ffffffffffffffff81111561174c57600080fd5b6114f288828901611435565b600181811c9082168061176c57607f821691505b60208210810361178c57634e487b7160e01b600052602260045260246000fd5b50919050565b634e487b7160e01b600052603260045260246000fd5b634e487b7160e01b600052601160045260246000fd5b6000600182016117d0576117d06117a8565b5060010190565b6020808252818101527f4f776e61626c653a2063616c6c6572206973206e6f7420746865206f776e6572604082015260600190565b6000821982111561181f5761181f6117a8565b500190565b60208082526025908201527f455243313135353a207472616e7366657220746f20746865207a65726f206164604082015264647265737360d81b606082015260800190565b6020808252602a908201527f455243313135353a20696e73756666696369656e742062616c616e636520666f60408201526939103a3930b739b332b960b11b606082015260800190565b6040815260006118c660408301856115e5565b82810360208401526118d881856115e5565b95945050505050565b6001600160a01b03868116825285166020820152604081018490526060810183905260a06080820181905260009061191b9083018461129f565b979650505050505050565b60006020828403121561193857600080fd5b815161127f8161124c565b600060033d111561195c5760046000803e5060005160e01c5b90565b600060443d101561196d5790565b6040516003193d81016004833e81513d67ffffffffffffffff816024840111818411171561199d57505050505090565b82850191508151818111156119b55750505050505090565b843d87010160208285010111156119cf5750505050505090565b6119de60208286010187611315565b509095945050505050565b60208082526028908201527f455243313135353a204552433131353552656365697665722072656a656374656040820152676420746f6b656e7360c01b606082015260800190565b6001600160a01b0386811682528516602082015260a060408201819052600090611a5d908301866115e5565b8281036060840152611a6f81866115e5565b90508281036080840152611a83818561129f565b9897505050505050505056fea2646970667358221220262ecedc24a2236e8509037c3b05367800d0ea8fcb494f9d87fbb9053216058b64736f6c634300080d0033",
  "linkReferences": {},
  "deployedLinkReferences": {}
}