{
  "_format": "hh-sol-artifact-1",
  "contractName": "Player",
  "sourceName": "contracts/Player.sol",
  "abi": [
    {
      "inputs": [
        {
          "internalType": "uint64",
          "name": "subscriptionId",
          "type": "uint64"
        }
      ],
      "stateMutability": "nonpayable",
      "type": "constructor"
    },
    {
      "inputs": [
        {
          "internalType": "address",
          "name": "have",
          "type": "address"
        },
        {
          "internalType": "address",
          "name": "want",
          "type": "address"
        }
      ],
      "name": "OnlyCoordinatorCanFulfill",
      "type": "error"
    },
    {
      "anonymous": false,
      "inputs": [
        {
          "indexed": true,
          "internalType": "address",
          "name": "previousOwner",
          "type": "address"
        },
        {
          "indexed": true,
          "internalType": "address",
          "name": "newOwner",
          "type": "address"
        }
      ],
      "name": "OwnershipTransferred",
      "type": "event"
    },
    {
      "inputs": [],
      "name": "claimQuestRewards",
      "outputs": [
        {
          "internalType": "uint256",
          "name": "s_requestId",
          "type": "uint256"
        }
      ],
      "stateMutability": "nonpayable",
      "type": "function"
    },
    {
      "inputs": [
        {
          "internalType": "uint256",
          "name": "_newFaction",
          "type": "uint256"
        }
      ],
      "name": "defect",
      "outputs": [],
      "stateMutability": "nonpayable",
      "type": "function"
    },
    {
      "inputs": [
        {
          "internalType": "address",
          "name": "_recipient",
          "type": "address"
        }
      ],
      "name": "getFaction",
      "outputs": [
        {
          "internalType": "uint256",
          "name": "",
          "type": "uint256"
        }
      ],
      "stateMutability": "view",
      "type": "function"
    },
    {
      "inputs": [
        {
          "internalType": "address",
          "name": "_recipient",
          "type": "address"
        }
      ],
      "name": "getHasRewards",
      "outputs": [
        {
          "internalType": "bool",
          "name": "",
          "type": "bool"
        }
      ],
      "stateMutability": "view",
      "type": "function"
    },
    {
      "inputs": [
        {
          "internalType": "address",
          "name": "_recipient",
          "type": "address"
        }
      ],
      "name": "getQuestIsLocked",
      "outputs": [
        {
          "internalType": "bool",
          "name": "",
          "type": "bool"
        }
      ],
      "stateMutability": "view",
      "type": "function"
    },
    {
      "inputs": [],
      "name": "goOnQuest",
      "outputs": [],
      "stateMutability": "nonpayable",
      "type": "function"
    },
    {
      "inputs": [
        {
          "internalType": "uint256",
          "name": "_faction",
          "type": "uint256"
        }
      ],
      "name": "joinAndMint",
      "outputs": [],
      "stateMutability": "nonpayable",
      "type": "function"
    },
    {
      "inputs": [
        {
          "internalType": "uint256",
          "name": "_faction",
          "type": "uint256"
        }
      ],
      "name": "joinFaction",
      "outputs": [],
      "stateMutability": "nonpayable",
      "type": "function"
    },
    {
      "inputs": [],
      "name": "mintCharacter",
      "outputs": [],
      "stateMutability": "nonpayable",
      "type": "function"
    },
    {
      "inputs": [],
      "name": "owner",
      "outputs": [
        {
          "internalType": "address",
          "name": "",
          "type": "address"
        }
      ],
      "stateMutability": "view",
      "type": "function"
    },
    {
      "inputs": [],
      "name": "random",
      "outputs": [
        {
          "internalType": "uint256",
          "name": "",
          "type": "uint256"
        }
      ],
      "stateMutability": "view",
      "type": "function"
    },
    {
      "inputs": [
        {
          "internalType": "uint256",
          "name": "requestId",
          "type": "uint256"
        },
        {
          "internalType": "uint256[]",
          "name": "randomWords",
          "type": "uint256[]"
        }
      ],
      "name": "rawFulfillRandomWords",
      "outputs": [],
      "stateMutability": "nonpayable",
      "type": "function"
    },
    {
      "inputs": [],
      "name": "renounceOwnership",
      "outputs": [],
      "stateMutability": "nonpayable",
      "type": "function"
    },
    {
      "inputs": [
        {
          "internalType": "address",
          "name": "_gameItemsAddress",
          "type": "address"
        }
      ],
      "name": "setGameItems",
      "outputs": [],
      "stateMutability": "nonpayable",
      "type": "function"
    },
    {
      "inputs": [
        {
          "internalType": "uint256",
          "name": "",
          "type": "uint256"
        }
      ],
      "name": "totalFactionMembers",
      "outputs": [
        {
          "internalType": "uint256",
          "name": "",
          "type": "uint256"
        }
      ],
      "stateMutability": "view",
      "type": "function"
    },
    {
      "inputs": [
        {
          "internalType": "address",
          "name": "newOwner",
          "type": "address"
        }
      ],
      "name": "transferOwnership",
      "outputs": [],
      "stateMutability": "nonpayable",
      "type": "function"
    }
  ],
  "bytecode": "0x60a0604052600a80546001600160a01b0319908116736168499c0cffcacd319c818142124b7a15e857ab17909155600b80549091167301be23585060835e02b77ef475b0cc51aa1e07091790557fd89b2bf150e3b9e13446986e571fb9cab24b13cea0a43ea20a6049a85cc807cc600c55600d8054660200030007a1206001600160501b031990911617905534801561009757600080fd5b506040516114873803806114878339810160408190526100b691610195565b600a546001600160a01b03166080526100ce33610145565b600a54600880546001600160a01b0319166001600160a01b03928316179055600b5460098054600d80546a01000000000000000000003302600160501b600160f01b03199091161790556001600160401b03909416600160a01b026001600160e01b031990941691909216179190911790556101c5565b600080546001600160a01b038381166001600160a01b0319831681178455604051919092169283917f8be0079c531659141344cd1fd0a4f28419497f9722a3daafe3b4186f6b6457e09190a35050565b6000602082840312156101a757600080fd5b81516001600160401b03811681146101be57600080fd5b9392505050565b6080516112a06101e76000396000818161048601526104c801526112a06000f3fe608060405234801561001057600080fd5b50600436106101005760003560e01c80638a53997211610097578063de325b8f11610066578063de325b8f14610204578063ec8884ec14610217578063f2fde38b1461022a578063faf039f41461023d57600080fd5b80638a539972146101975780638da5cb5b146101aa578063b7be8ad6146101c5578063c9047dec146101d857600080fd5b806330935509116100d3578063309355091461015d5780635ec01e4d1461017e578063715018a614610187578063775268e91461018f57600080fd5b806301653d44146101055780630779988c1461010f5780631fe543e3146101375780632c87d9161461014a575b600080fd5b61010d610245565b005b61012261011d366004611060565b610448565b60405190151581526020015b60405180910390f35b61010d6101453660046110a6565b61047b565b61010d610158366004611170565b610503565b61017061016b366004611170565b61069c565b60405190815260200161012e565b61017060055481565b61010d6106b3565b6101706106e9565b61010d6101a5366004611170565b6108b6565b6000546040516001600160a01b03909116815260200161012e565b61010d6101d3366004611060565b610aa6565b6101226101e6366004611060565b6001600160a01b031660009081526006602052604090205460ff1690565b610170610212366004611060565b610af2565b61010d610225366004611170565b610b2a565b61010d610238366004611060565b610b3b565b61010d610bd3565b6007546001600160a01b031662fdd58e3361025f81610af2565b6040516001600160e01b031960e085901b1681526001600160a01b0390921660048301526024820152604401602060405180830381865afa1580156102a8573d6000803e3d6000fd5b505050506040513d601f19601f820116820180604052508101906102cc9190611189565b60011461033d5760405162461bcd60e51b815260206004820152603460248201527f54686520506c6179657220646f6573206e6f74206f776e2061206368617261636044820152733a32b91037b3103a3434b9903330b1ba34b7b71760611b60648201526084015b60405180910390fd5b3360009081526006602052604090206001015442116103a85760405162461bcd60e51b815260206004820152602160248201527f54686520506c6179657220697320616c7265616479206f6e20612071756573746044820152601760f91b6064820152608401610334565b3360009081526006602052604090205460ff16156104185760405162461bcd60e51b815260206004820152602760248201527f54686520506c6179657220686173206e6f7420636c61696d656420697473207260448201526632bbb0b932399760c91b6064820152608401610334565b61042342603c6111b8565b336000908152600660205260409020600180820192909255805460ff19169091179055565b6001600160a01b03811660009081526006602052604081206001015442101561047357506001919050565b506000919050565b336001600160a01b037f000000000000000000000000000000000000000000000000000000000000000016146104f55760405163073e64fd60e21b81523360048201526001600160a01b037f0000000000000000000000000000000000000000000000000000000000000000166024820152604401610334565b6104ff8282610db5565b5050565b33600090815260066020526040902054610100900460ff16600381111561052c5761052c6111d0565b156105845760405162461bcd60e51b815260206004820152602260248201527f5468697320706c6179657220616c72656164792068617320612066616374696f604482015261371760f11b6064820152608401610334565b80600114806105935750806002145b8061059e5750806003145b6105ea5760405162461bcd60e51b815260206004820152601e60248201527f506c656173652073656c65637420612076616c69642066616374696f6e2e00006044820152606401610334565b8060010361062e57336000908152600660205260409020805461ff001916610100179055600180805b01600082825461062391906111b8565b909155506106999050565b8060020361065c57336000908152600660205260409020805461ff0019166102001790556001806002610613565b8060030361069957336000908152600660205260408120805461ff00191661030017905560048054600192906106939084906111b8565b90915550505b50565b600181600481106106ac57600080fd5b0154905081565b6000546001600160a01b031633146106dd5760405162461bcd60e51b8152600401610334906111fc565b6106e76000611010565b565b3360009081526006602052604081205460ff1615156001146107735760405162461bcd60e51b815260206004820152603b60248201527f54686520506c617965722068617320746f20676f206f6e20612071756573742060448201527f666972737420746f20636c61696d2069747320726577617264732e00000000006064820152608401610334565b3360009081526006602052604090206001015442116107d45760405162461bcd60e51b815260206004820152601f60248201527f54686520506c61796572206973207374696c6c206f6e20612071756573742e006044820152606401610334565b600854600c54600954600d546040516305d3b1d360e41b81526004810193909352600160a01b90910467ffffffffffffffff166024830152640100000000810461ffff16604483015263ffffffff808216606484015266010000000000009091041660848201526001600160a01b0390911690635d3b1d309060a4016020604051808303816000875af115801561086f573d6000803e3d6000fd5b505050506040513d601f19601f820116820180604052508101906108939190611189565b6000818152600e6020526040902080546001600160a01b03191633179055919050565b80600114806108c55750806002145b806108d05750806003145b61091c5760405162461bcd60e51b815260206004820152601e60248201527f506c656173652073656c65637420612076616c69642066616374696f6e2e00006044820152606401610334565b600061092733610af2565b9050600180826004811061093d5761093d6111e6565b01600082825461094d9190611231565b909155505060018214801561098b5750600133600090815260066020526040902054610100900460ff166003811115610988576109886111d0565b14155b156109cc57336000908152600660205260409020805461ff001916610100179055600180805b0160008282546109c191906111b8565b909155506104ff9050565b816002148015610a055750600233600090815260066020526040902054610100900460ff166003811115610a0257610a026111d0565b14155b15610a3057336000908152600660205260409020805461ff00191661020017905560018060026109b1565b816003148015610a695750600333600090815260066020526040902054610100900460ff166003811115610a6657610a666111d0565b14155b156104ff57336000908152600660205260408120805461ff0019166103001790556004805460019290610a9d9084906111b8565b90915550505050565b6000546001600160a01b03163314610ad05760405162461bcd60e51b8152600401610334906111fc565b600780546001600160a01b0319166001600160a01b0392909216919091179055565b6001600160a01b038116600090815260066020526040812054610100900460ff166003811115610b2457610b246111d0565b92915050565b610b3381610503565b610699610bd3565b6000546001600160a01b03163314610b655760405162461bcd60e51b8152600401610334906111fc565b6001600160a01b038116610bca5760405162461bcd60e51b815260206004820152602660248201527f4f776e61626c653a206e6577206f776e657220697320746865207a65726f206160448201526564647265737360d01b6064820152608401610334565b61069981611010565b600033600090815260066020526040902054610100900460ff166003811115610bfe57610bfe6111d0565b03610c4b5760405162461bcd60e51b815260206004820152601f60248201527f5468697320506c6179657220686173206e6f2066616374696f6e207965742e006044820152606401610334565b6007546001600160a01b031662fdd58e33610c6581610af2565b6040516001600160e01b031960e085901b1681526001600160a01b0390921660048301526024820152604401602060405180830381865afa158015610cae573d6000803e3d6000fd5b505050506040513d601f19601f82011682018060405250810190610cd29190611189565b15610d3a5760405162461bcd60e51b815260206004820152603260248201527f54686520506c617965722063616e206f6e6c79206d696e74203120436861726160448201527131ba32b91037b31032b0b1b4103a3cb8329760711b6064820152608401610334565b6007546001600160a01b03166314ff845c33610d5581610af2565b6040516001600160e01b031960e085901b1681526001600160a01b0390921660048301526024820152604401600060405180830381600087803b158015610d9b57600080fd5b505af1158015610daf573d6000803e3d6000fd5b50505050565b6000828152600e602052604081205482516001600160a01b03909116916103e891849190610de557610de56111e6565b6020026020010151610df79190611248565b610e029060016111b8565b600581905561032011610e7b57600754604051636e015ca360e11b81526001600160a01b038381166004830152600560248301529091169063dc02b946906044015b600060405180830381600087803b158015610e5e57600080fd5b505af1158015610e72573d6000803e3d6000fd5b50505050610fed565b610320600554108015610e92575061025860055410155b15610ed257600754604051636e015ca360e11b81526001600160a01b0383811660048084019190915260248301529091169063dc02b94690604401610e44565b610258600554108015610ee9575061019060055410155b15610f2757600754604051636e015ca360e11b81526001600160a01b038381166004830152600360248301529091169063dc02b94690604401610e44565b610190600554108015610f3d575060c860055410155b15610f7b57600754604051636e015ca360e11b81526001600160a01b038381166004830152600260248301529091169063dc02b94690604401610e44565b60c86005541015610fed57600754604051636e015ca360e11b81526001600160a01b038381166004830152600160248301529091169063dc02b94690604401600060405180830381600087803b158015610fd457600080fd5b505af1158015610fe8573d6000803e3d6000fd5b505050505b6001600160a01b03166000908152600660205260409020805460ff191690555050565b600080546001600160a01b038381166001600160a01b0319831681178455604051919092169283917f8be0079c531659141344cd1fd0a4f28419497f9722a3daafe3b4186f6b6457e09190a35050565b60006020828403121561107257600080fd5b81356001600160a01b038116811461108957600080fd5b9392505050565b634e487b7160e01b600052604160045260246000fd5b600080604083850312156110b957600080fd5b8235915060208084013567ffffffffffffffff808211156110d957600080fd5b818601915086601f8301126110ed57600080fd5b8135818111156110ff576110ff611090565b8060051b604051601f19603f8301168101818110858211171561112457611124611090565b60405291825284820192508381018501918983111561114257600080fd5b938501935b8285101561116057843584529385019392850192611147565b8096505050505050509250929050565b60006020828403121561118257600080fd5b5035919050565b60006020828403121561119b57600080fd5b5051919050565b634e487b7160e01b600052601160045260246000fd5b600082198211156111cb576111cb6111a2565b500190565b634e487b7160e01b600052602160045260246000fd5b634e487b7160e01b600052603260045260246000fd5b6020808252818101527f4f776e61626c653a2063616c6c6572206973206e6f7420746865206f776e6572604082015260600190565b600082821015611243576112436111a2565b500390565b60008261126557634e487b7160e01b600052601260045260246000fd5b50069056fea2646970667358221220e40c16bb28a572a59b425fd3ed66d86eeaa4eb8b765b727cce92dede679b17e664736f6c634300080d0033",
  "linkReferences": {},
  "deployedLinkReferences": {}
}