{
  "_format": "hh-sol-artifact-1",
  "contractName": "Player",
  "sourceName": "contracts/Player.sol",
  "abi": [
    {
      "anonymous": false,
      "inputs": [
        {
          "indexed": true,
          "internalType": "address",
          "name": "previousOwner",
          "type": "address"
        },
        {
          "indexed": true,
          "internalType": "address",
          "name": "newOwner",
          "type": "address"
        }
      ],
      "name": "OwnershipTransferred",
      "type": "event"
    },
    {
      "inputs": [],
      "name": "claimQuestRewards",
      "outputs": [],
      "stateMutability": "nonpayable",
      "type": "function"
    },
    {
      "inputs": [
        {
          "internalType": "uint256",
          "name": "_newFaction",
          "type": "uint256"
        }
      ],
      "name": "defect",
      "outputs": [],
      "stateMutability": "nonpayable",
      "type": "function"
    },
    {
      "inputs": [
        {
          "internalType": "address",
          "name": "_recipient",
          "type": "address"
        }
      ],
      "name": "getFaction",
      "outputs": [
        {
          "internalType": "uint256",
          "name": "",
          "type": "uint256"
        }
      ],
      "stateMutability": "view",
      "type": "function"
    },
    {
      "inputs": [
        {
          "internalType": "address",
          "name": "_recipient",
          "type": "address"
        }
      ],
      "name": "getHasRewards",
      "outputs": [
        {
          "internalType": "bool",
          "name": "",
          "type": "bool"
        }
      ],
      "stateMutability": "view",
      "type": "function"
    },
    {
      "inputs": [
        {
          "internalType": "address",
          "name": "_recipient",
          "type": "address"
        }
      ],
      "name": "getQuestIsLocked",
      "outputs": [
        {
          "internalType": "bool",
          "name": "",
          "type": "bool"
        }
      ],
      "stateMutability": "view",
      "type": "function"
    },
    {
      "inputs": [],
      "name": "goOnQuest",
      "outputs": [],
      "stateMutability": "nonpayable",
      "type": "function"
    },
    {
      "inputs": [
        {
          "internalType": "uint256",
          "name": "_faction",
          "type": "uint256"
        }
      ],
      "name": "joinAndMint",
      "outputs": [],
      "stateMutability": "nonpayable",
      "type": "function"
    },
    {
      "inputs": [
        {
          "internalType": "uint256",
          "name": "_faction",
          "type": "uint256"
        }
      ],
      "name": "joinFaction",
      "outputs": [],
      "stateMutability": "nonpayable",
      "type": "function"
    },
    {
      "inputs": [],
      "name": "mintCharacter",
      "outputs": [],
      "stateMutability": "nonpayable",
      "type": "function"
    },
    {
      "inputs": [],
      "name": "owner",
      "outputs": [
        {
          "internalType": "address",
          "name": "",
          "type": "address"
        }
      ],
      "stateMutability": "view",
      "type": "function"
    },
    {
      "inputs": [],
      "name": "random",
      "outputs": [
        {
          "internalType": "uint256",
          "name": "",
          "type": "uint256"
        }
      ],
      "stateMutability": "view",
      "type": "function"
    },
    {
      "inputs": [],
      "name": "renounceOwnership",
      "outputs": [],
      "stateMutability": "nonpayable",
      "type": "function"
    },
    {
      "inputs": [
        {
          "internalType": "address",
          "name": "_gameItemsAddress",
          "type": "address"
        }
      ],
      "name": "setGameItems",
      "outputs": [],
      "stateMutability": "nonpayable",
      "type": "function"
    },
    {
      "inputs": [
        {
          "internalType": "uint256",
          "name": "",
          "type": "uint256"
        }
      ],
      "name": "totalFactionMembers",
      "outputs": [
        {
          "internalType": "uint256",
          "name": "",
          "type": "uint256"
        }
      ],
      "stateMutability": "view",
      "type": "function"
    },
    {
      "inputs": [
        {
          "internalType": "address",
          "name": "newOwner",
          "type": "address"
        }
      ],
      "name": "transferOwnership",
      "outputs": [],
      "stateMutability": "nonpayable",
      "type": "function"
    }
  ],
  "bytecode": "0x608060405234801561001057600080fd5b5061001a3361001f565b61006f565b600080546001600160a01b038381166001600160a01b0319831681178455604051919092169283917f8be0079c531659141344cd1fd0a4f28419497f9722a3daafe3b4186f6b6457e09190a35050565b6110188061007e6000396000f3fe608060405234801561001057600080fd5b50600436106100f55760003560e01c80638a53997211610097578063de325b8f11610066578063de325b8f146101e6578063ec8884ec146101f9578063f2fde38b1461020c578063faf039f41461021f57600080fd5b80638a539972146101795780638da5cb5b1461018c578063b7be8ad6146101a7578063c9047dec146101ba57600080fd5b806330935509116100d3578063309355091461013f5780635ec01e4d14610160578063715018a614610169578063775268e91461017157600080fd5b806301653d44146100fa5780630779988c146101045780632c87d9161461012c575b600080fd5b610102610227565b005b610117610112366004610eb8565b61042a565b60405190151581526020015b60405180910390f35b61010261013a366004610ee8565b61045d565b61015261014d366004610ee8565b6105f6565b604051908152602001610123565b61015260055481565b61010261060d565b610102610643565b610102610187366004610ee8565b610968565b6000546040516001600160a01b039091168152602001610123565b6101026101b5366004610eb8565b610b59565b6101176101c8366004610eb8565b6001600160a01b031660009081526006602052604090205460ff1690565b6101526101f4366004610eb8565b610ba5565b610102610207366004610ee8565b610bdd565b61010261021a366004610eb8565b610bee565b610102610c86565b6007546001600160a01b031662fdd58e3361024181610ba5565b6040516001600160e01b031960e085901b1681526001600160a01b0390921660048301526024820152604401602060405180830381865afa15801561028a573d6000803e3d6000fd5b505050506040513d601f19601f820116820180604052508101906102ae9190610f01565b60011461031f5760405162461bcd60e51b815260206004820152603460248201527f54686520506c6179657220646f6573206e6f74206f776e2061206368617261636044820152733a32b91037b3103a3434b9903330b1ba34b7b71760611b60648201526084015b60405180910390fd5b33600090815260066020526040902060010154421161038a5760405162461bcd60e51b815260206004820152602160248201527f54686520506c6179657220697320616c7265616479206f6e20612071756573746044820152601760f91b6064820152608401610316565b3360009081526006602052604090205460ff16156103fa5760405162461bcd60e51b815260206004820152602760248201527f54686520506c6179657220686173206e6f7420636c61696d656420697473207260448201526632bbb0b932399760c91b6064820152608401610316565b61040542603c610f30565b336000908152600660205260409020600180820192909255805460ff19169091179055565b6001600160a01b03811660009081526006602052604081206001015442101561045557506001919050565b506000919050565b33600090815260066020526040902054610100900460ff16600381111561048657610486610f48565b156104de5760405162461bcd60e51b815260206004820152602260248201527f5468697320706c6179657220616c72656164792068617320612066616374696f604482015261371760f11b6064820152608401610316565b80600114806104ed5750806002145b806104f85750806003145b6105445760405162461bcd60e51b815260206004820152601e60248201527f506c656173652073656c65637420612076616c69642066616374696f6e2e00006044820152606401610316565b8060010361058857336000908152600660205260409020805461ff001916610100179055600180805b01600082825461057d9190610f30565b909155506105f39050565b806002036105b657336000908152600660205260409020805461ff001916610200179055600180600261056d565b806003036105f357336000908152600660205260408120805461ff00191661030017905560048054600192906105ed908490610f30565b90915550505b50565b6001816004811061060657600080fd5b0154905081565b6000546001600160a01b031633146106375760405162461bcd60e51b815260040161031690610f74565b6106416000610e68565b565b3360009081526006602052604090205460ff1615156001146106cd5760405162461bcd60e51b815260206004820152603b60248201527f54686520506c617965722068617320746f20676f206f6e20612071756573742060448201527f666972737420746f20636c61696d2069747320726577617264732e00000000006064820152608401610316565b33600090815260066020526040902060010154421161072e5760405162461bcd60e51b815260206004820152601f60248201527f54686520506c61796572206973207374696c6c206f6e20612071756573742e006044820152606401610316565b6103e8424460405160200161074d929190918252602082015260400190565b6040516020818303038152906040528051906020012060001c6107709190610fa9565b6005819055610320116107e757600754604051636e015ca360e11b8152336004820152600160248201526001600160a01b039091169063dc02b946906044015b600060405180830381600087803b1580156107ca57600080fd5b505af11580156107de573d6000803e3d6000fd5b5050505061094f565b6103206005541080156107fe575061025860055410155b1561083a57600754604051636e015ca360e11b8152336004820152600160248201526001600160a01b039091169063dc02b946906044016107b0565b610258600554108015610851575061019060055410155b1561088d57600754604051636e015ca360e11b8152336004820152600160248201526001600160a01b039091169063dc02b946906044016107b0565b6101906005541080156108a3575060c860055410155b156108df57600754604051636e015ca360e11b8152336004820152600160248201526001600160a01b039091169063dc02b946906044016107b0565b60c8600554101561094f57600754604051636e015ca360e11b8152336004820152600160248201526001600160a01b039091169063dc02b94690604401600060405180830381600087803b15801561093657600080fd5b505af115801561094a573d6000803e3d6000fd5b505050505b336000908152600660205260409020805460ff19169055565b80600114806109775750806002145b806109825750806003145b6109ce5760405162461bcd60e51b815260206004820152601e60248201527f506c656173652073656c65637420612076616c69642066616374696f6e2e00006044820152606401610316565b60006109d933610ba5565b905060018082600481106109ef576109ef610f5e565b0160008282546109ff9190610fcb565b9091555050600182148015610a3d5750600133600090815260066020526040902054610100900460ff166003811115610a3a57610a3a610f48565b14155b15610a7e57336000908152600660205260409020805461ff001916610100179055600180805b016000828254610a739190610f30565b90915550610b559050565b816002148015610ab75750600233600090815260066020526040902054610100900460ff166003811115610ab457610ab4610f48565b14155b15610ae257336000908152600660205260409020805461ff0019166102001790556001806002610a63565b816003148015610b1b5750600333600090815260066020526040902054610100900460ff166003811115610b1857610b18610f48565b14155b15610b5557336000908152600660205260408120805461ff0019166103001790556004805460019290610b4f908490610f30565b90915550505b5050565b6000546001600160a01b03163314610b835760405162461bcd60e51b815260040161031690610f74565b600780546001600160a01b0319166001600160a01b0392909216919091179055565b6001600160a01b038116600090815260066020526040812054610100900460ff166003811115610bd757610bd7610f48565b92915050565b610be68161045d565b6105f3610c86565b6000546001600160a01b03163314610c185760405162461bcd60e51b815260040161031690610f74565b6001600160a01b038116610c7d5760405162461bcd60e51b815260206004820152602660248201527f4f776e61626c653a206e6577206f776e657220697320746865207a65726f206160448201526564647265737360d01b6064820152608401610316565b6105f381610e68565b600033600090815260066020526040902054610100900460ff166003811115610cb157610cb1610f48565b03610cfe5760405162461bcd60e51b815260206004820152601f60248201527f5468697320506c6179657220686173206e6f2066616374696f6e207965742e006044820152606401610316565b6007546001600160a01b031662fdd58e33610d1881610ba5565b6040516001600160e01b031960e085901b1681526001600160a01b0390921660048301526024820152604401602060405180830381865afa158015610d61573d6000803e3d6000fd5b505050506040513d601f19601f82011682018060405250810190610d859190610f01565b15610ded5760405162461bcd60e51b815260206004820152603260248201527f54686520506c617965722063616e206f6e6c79206d696e74203120436861726160448201527131ba32b91037b31032b0b1b4103a3cb8329760711b6064820152608401610316565b6007546001600160a01b03166314ff845c33610e0881610ba5565b6040516001600160e01b031960e085901b1681526001600160a01b0390921660048301526024820152604401600060405180830381600087803b158015610e4e57600080fd5b505af1158015610e62573d6000803e3d6000fd5b50505050565b600080546001600160a01b038381166001600160a01b0319831681178455604051919092169283917f8be0079c531659141344cd1fd0a4f28419497f9722a3daafe3b4186f6b6457e09190a35050565b600060208284031215610eca57600080fd5b81356001600160a01b0381168114610ee157600080fd5b9392505050565b600060208284031215610efa57600080fd5b5035919050565b600060208284031215610f1357600080fd5b5051919050565b634e487b7160e01b600052601160045260246000fd5b60008219821115610f4357610f43610f1a565b500190565b634e487b7160e01b600052602160045260246000fd5b634e487b7160e01b600052603260045260246000fd5b6020808252818101527f4f776e61626c653a2063616c6c6572206973206e6f7420746865206f776e6572604082015260600190565b600082610fc657634e487b7160e01b600052601260045260246000fd5b500690565b600082821015610fdd57610fdd610f1a565b50039056fea26469706673582212204d2b1403de0dd9f5b1048a21782ef9b0138711234278a43067f40a97f2ad73d964736f6c634300080d0033",
  "linkReferences": {},
  "deployedLinkReferences": {}
}